:100000000C947C040C94C3040C94C3040C94C3049B
:100010000C94C3040C94C3040C94C3040C94C30444
:100020000C94C3040C94C3040C9420210C94F2216E
:100030000C94CB1B0C94C3040C94C3040C94C30405
:100040000C94C3040C94C3040C94C3040C94C30414
:100050000C94C3040C94241C0C94C3040C94C3048B
:100060000C94C3040C94C3040C94C3040C94C304F4
:100070000C94C3040C94C3040C94C3040C94C304E4
:100080000C94C3040C94C3040C94C3040C94C304D4
:100090000C94C3040C94C3040C94C3040C94C304C4
:1000A0000C94C3040C94C3040C94C30428082808BB
:1000B0005A085A08A708DB09DB09DB09C5085A09F1
:1000C0006B096B09CB09DB09DB09D409770A770ACD
:1000D000890A890A800A890A890A890A770A770AB5
:1000E000850A890A890A850A5F2286227E2386225A
:1000F0007E23D222F5227E234C235B232B00140087
:100100001A00080015001700E000040016000700A0
:1001100009000A00E1001D001B000600190005008F
:100120001C0018000C00120013004C000B000D0006
:100130000E000F00330034001100100036003700AD
:100140003800280001512C002A00000000000000A7
:10015000E2001E001F00200021002B00E000220012
:100160002300240025000000E100260027000000F5
:10017000000002512E0000000000000000002900D5
:100180002D002F003000000000000F00E3005000A1
:10019000520051004F001600010000000351000002
:1001A00000000000E2003A003B003C003D0000007F
:1001B000E0003E003F00400041000000E10042003E
:1001C0004300440045000100000000000000000062
:1001D000000000000000005C0000000000000000C3
:1001E000000000000000000000000000010000000E
:1001F00000000000000000000000000000000000FF
:1002000000000000000000000000000000000000EE
:1002100000000000000000000000000000000000DE
:1002200000000000000000000000000000000000CE
:1002300000000000000000000000000000000000BE
:10024000010000000100000000000000444542558C
:10025000473A2064697361626C65642E0A00444504
:100260004255473A20656E61626C65642E0A004F04
:100270006E6573686F743A206163746976653A20BD
:1002800025640A000A0025303258006B6579626FD8
:100290006172645F7365745F6C65643A20000A0084
:1002A00025303862003A200025303258000A722F7B
:1002B000632030313233343536370A003F00433E55
:1002C00020004C25640A000A092D205374617475BE
:1002D00073202D0A686F73745F6B6579626F61724A
:1002E000645F6C65647328293A20253032580A6BA4
:1002F0006579626F6172645F70726F746F636F6C47
:100300003A20253032580A6B6579626F6172645FFA
:1003100069646C653A20253032580A74696D6572DB
:100320005F72656164333228293A202530386C5871
:100330000A000A092D2056657273696F6E202D0A16
:100340005649443A203078464545442867746970D8
:100350007329205049443A2030783546313028728C
:10036000657669756E67333929205645523A2030D3
:1003700078303030310A4255494C443A20202853D5
:1003800065702032372032303231290A4F505449BB
:100390004F4E533A204C5546412045585452414BFC
:1003A000455920434F4E534F4C4520434F4D4D41EF
:1003B0004E4420343039360A4743433A20352E34F0
:1003C0002E30204156522D4C4942433A20322E3095
:1003D0002E30204156525F415243483A2061767296
:1003E000350A000A092D20436F6E736F6C65202D4E
:1003F0000A4553432F713A09717569740A000A0955
:100400002D204D61676963202D0A443A09446562D5
:100410007567204D65737361676520546F67676CFE
:10042000650A583A094D61747269782044656275AD
:1004300067204D6F646520546F67676C65202D20C1
:1004400053686F77206B657970726573736573207D
:10045000696E206D617472697820677269640A4BF5
:100460003A094B6579626F61726420446562756711
:1004700020546F67676C65202D2053686F77206B61
:1004800065797072657373207265706F72740A4D4E
:100490003A094465627567204D6F75736520546F26
:1004A00067676C650A563A0956657273696F6E0A1A
:1004B000533A095374617475730A433A094163747A
:1004C000697661746520436F6E736F6C65204D6F44
:1004D00064650A46312D4631303A095377697463B1
:1004E0006820746F204C6179657220302D39202886
:1004F000463130203D204C30290A302D393A0953FD
:10050000776974636820746F204C6179657220305C
:100510002D390A47524156453A0953776974636841
:1005200020746F204C6179657220302028616C74D2
:1005300065726E617465290A423A094A756D7020C8
:10054000746F20426F6F746C6F616465720A4553FB
:10055000433A094A756D7020746F20426F6F746C56
:100560006F616465722028616C7465726E61746578
:10057000290A453A095072696E7420454550524F18
:100580004D2053657474696E67730A42535041433A
:10059000453A09436C65617220454550524F4D0AFA
:1005A000006B65796D61705F636F6E6669672E724F
:1005B00061773A20253032580A2E737761705F6375
:1005C0006F6E74726F6C5F636170736C6F636B3AA4
:1005D0002025750A2E636170736C6F636B5F746F97
:1005E0005F636F6E74726F6C3A2025750A2E737795
:1005F00061705F6C63746C5F6C6775693A20257518
:100600000A2E737761705F7263746C5F72677569CD
:100610003A2025750A2E737761705F6C616C745F88
:100620006C6775693A2025750A2E737761705F7261
:10063000616C745F726775693A2025750A2E6E6F5A
:100640005F6775693A2025750A2E737761705F6759
:10065000726176655F6573633A2025750A2E73773C
:1006600061705F6261636B736C6173685F62616329
:100670006B73706163653A2025750A2E6E6B726F1D
:100680003A2025750A0064656275675F636F6E6660
:1006900069672E7261773A20253032580A2E656ECE
:1006A00061626C653A2025750A2E6D6174726978F5
:1006B0003A2025750A2E6B6579626F6172643A2063
:1006C00025750A2E6D6F7573653A2025750A0065CC
:1006D00065636F6E6669673A0A64656661756C7416
:1006E0005F6C617965723A2025750A003F000A6DDA
:1006F0006F7573653A206F66660A000A6D6F7573D1
:10070000653A206F6E0A000A6B6579626F617264E8
:100710003A206F66660A000A6B6579626F617264DF
:100720003A206F6E0A000A6D61747269783A206F20
:1007300066660A000A6D61747269783A206F6E0A03
:10074000000A64656275673A206F66660A000A648B
:10075000656275673A206F6E0A000A0A4A756D7005
:10076000696E6720746F20626F6F746C6F6164656F
:10077000722E2E2E2000433E2000436C656172696C
:100780006E6720454550524F4D0A000A0025303211
:100790005820006B6579626F6172645F7265706F7B
:1007A00072743A20005B735D004B6579626F617211
:1007B000642073746172742E0A005B575D005B5392
:1007C0005D005B525D005B445D005B435D001403B4
:1007D000720065007600690075006E0067003300E6
:1007E000390000000C03670074006900700073009A
:1007F00000000403090409025B00030100A0FA09D8
:10080000040000010301010009211101000122403F
:10081000000705810308000A090401000103000024
:100820000009211101000122320007058203200086
:100830000A0904020002030000000921110100015D
:10084000222200070583032000010705030320007F
:10085000011201000200000008EDFE105F0100011E
:100860000200010631FF0974A1010975150026FF78
:10087000009520750881020976150026FF00952055
:1008800075089102C005010980A101850319012A9B
:10089000B700150126B700950175108100C0050C41
:1008A0000901A101850419012AA002150126A0024F
:1008B000950175108100C005010906A10105071900
:1008C000E029E7150025019508750181029501755C
:1008D0000881010507190029FF150026FF0095066C
:1008E0007508810005081901290595057501910212
:1008F000950175039101C00011241FBECFEFDAE00E
:10090000DEBFCDBF04B603FE27C080914B0290919D
:100910004C02A0914D02B0914E028730904BA740FF
:10092000B04BD1F410924B0210924C0210924D0237
:1009300010924E0214BE84B7877F84BF0FB6F8941E
:10094000A89580916000886180936000109260009B
:100950000FBEE0E0F8E3099511E0A0E0B1E0E8E2C5
:10096000F8E402C005900D92AC38B107D9F722E047
:10097000ACE8B1E001C01D92AB34B207E1F70E94D0
:1009800096160C9412240C940000FF93EF93E091C0
:100990008C01F0918D01309709F00995EF91FF914D
:1009A0000895FC018591803011F0EFDFFBCF0895B1
:1009B000FF27E0E230E247FF0CC0419597FF09C0F6
:1009C000EDE26095709580959095611D711D811D7A
:1009D000911D27FF02C0219530E350E2AA27660F40
:1009E000771F881F991FAA1FA41710F0A41B6395D7
:1009F0005A95A9F7AA3008F0A95FA05DAF93F395C7
:100A0000611571058105910541F7ED3211F4EF9300
:100A1000F395F21718F43F93F395FBCF8F91B5DF61
:100A2000FA95E1F70895E991F9918591803021F0E7
:100A3000853219F0AADFF9CF089520E0E8945591A6
:100A40005532C1F3503311F4689455915A3348F438
:100A5000505390F3220F022E220F220F200D250F4C
:100A6000F4CF0EF4219589919991533619F35337A8
:100A700029F1533559F1BC0188279927E8945C3650
:100A800021F48991999168945591543639F446EF3F
:100A90007EF077FF0DC08FEF9FEF0AC055374AE019
:100AA00039F0583540E121F0523642E009F008951E
:100AB000FF93EF937DDFEF91FF91B7CFFF93EF931C
:100AC000FC0181918030B9F360DFFBCFFF93EF939E
:100AD00068DFF1CFDF93CF93CDB7DEB72596A3DFE5
:100AE000CF91DF91089581E0089581E008950C94FD
:100AF000750508950C9479051F93CF93DF9300D06B
:100B000000D01F92CDB7DEB749835A836B833091F3
:100B10008E0189819A81311114C0662359F02223F4
:100B200049F00E941D0C182F682F89819A810E941C
:100B3000C40B03C00E94F00B182F69817A81812FAA
:100B400004C00E941D0C69817A810F900F900F9054
:100B50000F900F90DF91CF911F910C94D412FC0154
:100B6000262F408151816281738184810C947C05A0
:100B700081E00895CF93DF93EC0160E00E94AF0520
:100B8000BE01DF91CF910C947A050E94E1140E947E
:100B900067060C9460150C945C1508950E94650A14
:100BA0000E94CD052FEF84E39CE0215080409040CF
:100BB000E1F700C000000C944A1C0F931F93CF93E1
:100BC000DF938C0161E00E94AF05EC01B8010E9447
:100BD0007705882309F45BC0B801CE010E94F418A0
:100BE000882309F454C0B801CE010E944619882315
:100BF00009F44DC0B801CE010E94711A882309F48E
:100C000046C0F80182818823D9F1CF3D8CE5D80711
:100C100079F140F4C115FCE5DF0791F0C130DC4506
:100C200091F02EC0CC35EDE5DE0741F1CD35FDE587
:100C3000DF0709F1CB35DD4519F50E94591020C0B9
:100C40000E94CE0524C080910A02C82FC095C170B1
:100C5000C0FB80F980930A02CC2329F08EE592E054
:100C60000E94D10414C08CE492E00E94D10410C010
:100C70000E94C6110CC00E94501002C00E945C105D
:100C8000C801DF91CF911F910F910C947305C0E0C3
:100C90008C2FDF91CF911F910F9108958295982FFE
:100CA000937344E0949F900111248C7C86958695E3
:100CB000282B822F8575880F2A7A2695822B0895F6
:100CC00008950C94600681E008950C9463060895DD
:100CD000CF93C82F0E9461068C2F0E946506CF918A
:100CE0000895CF93DF93CDB7DEB72B970FB6F89467
:100CF000DEBF0FBECDBF4F83588769877A878B874A
:100D000061110E947F109E012F5F3F4F86E0F90125
:100D100011928A95E9F785E0FE013796D901019095
:100D20000D928A95E1F789819A814C815D81452BED
:100D300031F09F3F31F491E08F3F19F403C091E00F
:100D400001C090E090FF09C049815A816B817C818C
:100D50008D819E810E946B0F05C0C9010E94B8055C
:100D60008111F2CF2B960FB6F894DEBF0FBECDBF28
:100D7000DF91CF910895FC01808191810E945F0CE9
:100D80000895CF93882309F4A1C0C82F8238C1F4F5
:100D90000E94A71A81FD9AC069E380910001909199
:100DA00001010E946A1B0E94B1102FEF81EE94E0B6
:100DB000215080409040E1F700C0000069E319C075
:100DC000833801F50E94A71A80FD80C063E58091F9
:100DD0000001909101010E946A1B0E94B1102FEF47
:100DE00081EE94E0215080409040E1F700C0000087
:100DF00063E580910001909101010E946C1BCF91ED
:100E00000C94B1108438C1F40E94A71A82FD5EC010
:100E100067E480910001909101010E946A1B0E9489
:100E2000B1102FEF81EE94E0215080409040E1F727
:100E300000C0000067E4DDCF8CEF8C0F813AF8F43E
:100E40008C2F0E943818811141C06C2F80910001B5
:100E5000909101010E94341B882349F06C2F8091EE
:100E60000001909101010E946C1B0E94B1106C2F37
:100E700080910001909101010E946A1BC0CF80E225
:100E80008C0F883048F4C77081E001C0880FCA9584
:100E9000EAF70E946210B3CFEBE5EC0FE33040F4C9
:100EA000F0E0E55CFE4F808190E0CF910C94FC1A5D
:100EB000C85AC73158F4EC2FF0E0EE0FFF1FE35F84
:100EC000FE4F80819181CF910C94121BCF91089598
:100ED000882309F45BC0682F823879F40E94A71A2E
:100EE00081FF54C069E380910001909101010E944B
:100EF0006A1B0E94B11069E310C08338B1F40E94EC
:100F0000A71A80FF43C063E5809100019091010121
:100F10000E946A1B0E94B11063E5809100019091CC
:100F200001010E946C1B0C94B110843879F40E946A
:100F3000A71A82FF2BC067E4809100019091010104
:100F40000E946A1B0E94B11067E4E7CF8CEF860F06
:100F5000813A18F380E2860F883048F4677081E0A8
:100F600001C0880F6A95EAF70E946810DCCF8BE514
:100F7000860F833020F480E090E00C94FC1A685ACD
:100F8000673120F480E090E00C94121B08951F93C9
:100F9000CF93DF93182FEB010E94C106209741F0F9
:100FA0008FE99FE00197F1F700C000002197F6CF8D
:100FB000812FDF91CF911F910C946807893319F02D
:100FC00060E070E002C060E570E00C94C707882321
:100FD00021F00E9462100C94B1100895882321F032
:100FE0000E9468100C94B1100895CF92DF92EF9296
:100FF000FF920F931F93CF93DF937C01062FC72F90
:10100000FC01D281158112951F700E942310882344
:1010100099F0DD2389F08C2F807F803421F080E2ED
:10102000800F883048F082E00E9401110E94231056
:1010300091E0D82ED92601C0D12CCC2EC2948FE0BD
:10104000C8228C2D90E0FC01EA5AFF4F0C94BD237E
:101050008C2F807FCF70882311F0C295C07FDD2355
:1010600099F0CC2309F482C180E2800F883010F01F
:10107000011104C08C2F0E94621003C08C2F0E94AB
:1010800072100E94B11072C1802F0E946807CC2399
:1010900009F491C180E2800F883010F0011104C082
:1010A0008C2F0E94681003C08C2F0E9478100E9421
:1010B000B11081C18C2F807FCF70803211F0C2952A
:1010C000C07F002319F00130C9F022C0DD2371F088
:1010D000112341F0113031F40E9492108C2B0E94A8
:1010E0009A1069C10E9492108C2B1DC0112319F017
:1010F000113009F460C10E94A71025C0DD2321F042
:10110000163008F058C10EC0153008F054C11BC08D
:10111000DD2361F0112331F0F701858180FF26C1C5
:101120008F7085838C2F0E94E70745C1112359F0EA
:10113000093309F02CC1FFEF27EE83E0F150204086
:101140008040E1F722C18C2F0E94EE0734C18C2F22
:1011500086958695837019F0813061F02CC1DD236E
:1011600021F0802F9C2F937002C080E090E00E94BD
:10117000FC1A29C1DD2321F0802F9C2F937002C01F
:1011800080E090E00E94121B1EC18C2F837009F03A
:1011900045C0D11114C1402F429546954770440F68
:1011A000440F602F6F70862F90E0A0E0B0E0042E17
:1011B00004C0880F991FAA1FBB1F0A94D2F704FF0F
:1011C00010C00FE010E020E030E004C0000F111F5D
:1011D000221F331F4A95D2F7009510952095309520
:1011E00003C000E010E09801C695C695C370BC012D
:1011F000CD01602B712B822B932BC23049F058F418
:10120000C13019F00E94DA0ADAC00E94C80AD7C0B9
:101210000E94EC0AD4C00E94C60AD1C0DD2319F096
:101220008C2F817001C08695882309F4C8C0402F97
:10123000429546954770440F440F602F6F70862F7C
:1012400090E0A0E0B0E0042E04C0880F991FAA1F10
:10125000BB1F0A94D2F704FF10C00FE010E020E09B
:1012600030E004C0000F111F221F331F4A95D2F730
:10127000009510952095309503C000E010E098018E
:10128000C695C695C370BC01CD01602B712B822B16
:10129000932BC23049F058F4C13019F00E949F0BD3
:1012A0008EC00E948D0B8BC00E94B10B88C00E9423
:1012B000000B85C0CF70DD2339F08C2F0E94260BE8
:1012C000802F0E94E7077BC0802F0E94EE078C2FA3
:1012D0000E94470B74C0023F01F128F4003F41F027
:1012E000013FA1F03FC0033FF9F0043F39F13AC09C
:1012F000DD2341F0153008F05EC08C2F8F710E9405
:101300006C0B59C0163008F056C0F7CFDD2339F00A
:101310008C2F8F710E94260B4EC0DD23C9F38C2FBA
:101320008F710E94470B47C0DD2329F08C2F8F71EE
:101330000E94110B40C00E940C0B3DC0DD2349F000
:10134000CF718C2F0E94260B63E08C2F0E94E61039
:1013500032C081E00E940111123068F182E00E94E7
:10136000011129C0DD2331F0112391F2802F0E9459
:10137000C10621C0112399F2093349F49FEFE7EE2A
:10138000F3E09150E040F040E1F700C00000802F12
:101390000E94680710C04C2F4F70602FC7010E9439
:1013A000D0120E948D0C0FC04C2F4F70602FC701C0
:1013B0000E94D31208C088EF8C0D843020F40E9464
:1013C000A71A0E946806DD20C9F00E941F1080FD48
:1013D00015C0F70112820E9419100E94260BC70146
:1013E0000E941F0A0E941910DF91CF911F910F9147
:1013F000FF90EF90DF90CF900C94470BDF91CF914F
:101400001F910F91FF90EF90DF90CF9008950F9371
:101410001F93CF93DF93EC01688179818A810E94C9
:101420006A0C8C010E94C30B0E94B40AB801CE0161
:101430000E94F507DF91CF911F910F910895CF93EF
:10144000DF93EC01988189812B813C81232B31F042
:101450008F3F31F481E09F3F19F403C081E001C068
:1014600080E080FD19C0CE010E94DD0581110CC015
:101470000E942310882381F08A81882369F082E00A
:10148000DF91CF910C940111CE010E94070ACE0189
:10149000DF91CF910C94BA05DF91CF91089580E050
:1014A00090E00E94FC1A80E090E00E94121B0E94D3
:1014B0007F100E948F100C94B110809100019091C8
:1014C00001010E946E1B0C944F0A0E946F100C9435
:1014D0005D0AE92FE295EF704E2F50E0FA01329746
:1014E000EE30F105B0F4EA59FF4F0C94BD23803F74
:1014F00091F018F4883E68F40EC0843F51F40BC09C
:10150000883E48F0813F29F406C093FB882780F984
:10151000089580E0089581E00895FC018081918123
:101520000E945F0C0E94690A0895CF93DF9300D058
:1015300000D01F92CDB7DEB70F900F900F900F9095
:101540000F90DF91CF910895CF93DF9300D000D01B
:1015500000D0CDB7DEB726960FB6F894DEBF0FBE2B
:10156000CDBFDF91CF910895089508950C94B50AE9
:101570000C94B60A0E94B80A6093B1017093B2014C
:101580008093B3019093B4010C944F0A0C94BA0A5F
:101590000F931F930091B1011091B2012091B301FB
:1015A0003091B401602B712B822B932B1F910F91E3
:1015B0000C94BA0A0F931F930091B1011091B201DC
:1015C0002091B3013091B4016023712382239323CE
:1015D0001F910F910C94BA0A0F931F930091B101C0
:1015E0001091B2012091B3013091B40160277127AD
:1015F000822793271F910F910C94BA0A0C94B50A75
:101600000E94FE0A6093AD017093AE018093AF011A
:101610009093B0010C944F0A60E070E0CB010C9401
:10162000000B0F931F9341E050E060E070E08A01EF
:101630009B0104C0000F111F221F331F8A95D2F790
:10164000C901B8011F910F910C94000B0F931F93C8
:1016500041E050E060E070E004C0440F551F661F99
:10166000771F8A95D2F78091AD019091AE01A0913C
:10167000AF01B091B0018A019B01082B192B2A2BD5
:101680003B2BC901B8011F910F910C94000B0F93D4
:101690001F9341E050E060E070E004C0440F551F2C
:1016A000661F771F8A95D2F7409550956095709583
:1016B0008091AD019091AE01A091AF01B091B001C8
:1016C0008A019B01082319232A233B23C901B8015E
:1016D0001F910F910C94000B0F931F9341E050E06A
:1016E00060E070E004C0440F551F661F771F8A95A5
:1016F000D2F78091AD019091AE01A091AF01B09170
:10170000B0018A019B01082719272A273B27C90115
:10171000B8011F910F910C94000B0F931F93009130
:10172000AD011091AE012091AF013091B001602B5D
:10173000712B822B932B1F910F910C94000B0F9305
:101740001F930091AD011091AE012091AF01309136
:10175000B00160237123822393231F910F910C9476
:10176000000B0F931F930091AD011091AE012091DA
:10177000AF013091B00160277127822793271F9115
:101780000F910C94000B0895292F220F920F990F9F
:10179000890FE82FE695E695E695877051E001C040
:1017A000550F8A95EAF785E0E89FF0011124E1578B
:1017B000FE4F20E030E070E04081CB01022E02C0FD
:1017C000969587950A94E2F7817081958427852301
:1017D000842781932F5F3F4F2530310569F70895A6
:1017E000292F220F920F990F890F682F6695669502
:1017F0006695982F977085E0689FB001112440E0AE
:1018000050E080E0FB01E40FF51FE157FE4F20811F
:1018100030E0092E02C0369527950A94E2F7217030
:101820003327042E01C0220F0A94EAF7822B4F5F60
:101830005F4F4530510531F70895BF92CF92DF9247
:10184000EF92FF920F931F93CF93DF938C01C09081
:10185000AD01D090AE01E090AF01F090B001809169
:10186000B1019091B201A091B301B091B401C82A25
:10187000D92AEA2AFB2ACFE1D0E0D701C6010C2EF3
:1018800004C0B695A795979587950A94D2F780FDE1
:1018900004C0219790F7B12C07C0BC2EB8018C2F43
:1018A0000E9404140197A9F38B2DDF91CF911F9112
:1018B0000F91FF90EF90DF90CF90BF900895CF935E
:1018C000DF93EC010E941D0CBE010E940414DF9105
:1018D000CF9108951F93CF93DF93EB0190918E01E9
:1018E000992321F0CB010E945F0C13C0882349F09B
:1018F000CB010E941D0C182F682FCE010E94C40B33
:1019000004C0CB010E94F00B182FBE01812F0E9452
:101910000414DF91CF911F910895EF92FF920F93DE
:101920001F93CF93DF938C01892B09F46CC0F12CAA
:10193000EE24E394E8012196F8018491843740F481
:10194000843008F051C0813081F0823019F15BC0E1
:10195000853709F444C0A8F19CE7980F903708F048
:1019600052C08F770E94680741C00E5F1F4FFE0173
:10197000849190E2980F983050F48770FE2D01C04A
:10198000FF0F8A95EAF78F2F0E94821014C00E94E1
:10199000C1062DC00E5F1F4FFE01849190E2980F8B
:1019A000983060F48770FE2D01C0FF0F8A95EAF72A
:1019B0008F2F0E9488100E94B11019C00E946807E2
:1019C00016C00E5F1F4FFE01C491CC2381F08FE93A
:1019D0009FE00197F1F700C00000C150F6CF0E5F05
:1019E0001F4FFE01F49003C00E94C1068E018F2D8F
:1019F000882309F49FCFEFE9FFE03197F1F700C0AA
:101A000000008150F5CFDF91CF911F910F91FF9092
:101A1000EF9008951F93CF93DF93C091B50116E027
:101A20008091B601C81799F0D0E01C9FF0011D9F6E
:101A3000F00D1124E954FE4F408151816281738180
:101A4000848195810E94A40A2196C770E9CFDF9115
:101A5000CF911F9108954091E7015091E801609165
:101A6000E9017091EA018091EB019091EC010C94F5
:101A7000A40A0F931F93CF93DF938091EC0182957B
:101A80008F7009F05DC08091E901882309F458C086
:101A90008091B5011091B6016091E7017091E80164
:101AA000C091EA01D091EB0191E06F3F09F090E025
:101AB000292F06E0811709F443C0209721F07F3FCA
:101AC00021F030E003C031E001C0322F90E030FD62
:101AD00034C0089FF001099FF00D1124DF01A954C3
:101AE000BE4F11963C911197371327C03C91361386
:101AF00024C012963C91129731111FC013964D913C
:101B00005C9114974C1B5D0B483C5105B0F48091DF
:101B1000EC018F7080618093EC01E454FE4F808172
:101B20008F708061808387EE91E00E941F0ADF91B1
:101B3000CF911F910F910C940A0D01968770BACF27
:101B4000DF91CF911F910F9108959F92AF92BF9215
:101B5000CF92DF92EF92FF920F931F93CF93DF9379
:101B6000CDB7DEB761970FB6F894DEBF0FBECDBF1D
:101B70008C0185E0F801DE011D9601900D928A9599
:101B8000E1F7F801E2809091E7016091E80120918E
:101B9000EA013091EB012115310531F06F3F31F44D
:101BA00081E09F3F19F403C081E001C080E0F82F7D
:101BB000F1709F2E80FD3FC1F80140815181A380CB
:101BC000B48087EEC82E81E0D82EF090E901F501AF
:101BD000E21BF30BFF2009F4D9C08091EC01E83C33
:101BE000F10508F095C0282F207F09F052C0561348
:101BF00013C0491311C0FE2CE1100EC08F7080611C
:101C00008093EC010E942B0DC6010E941F0A809157
:101C1000EC01F80185834CC1AB2831F05F3F31F412
:101C200081E04F3F19F403C081E001C080E080FDF6
:101C300003C081E08E2502C080E090E0F82FF170B3
:101C4000FF2E80FF1CC08091B5012091B60136E0C7
:101C5000821709F40BC190E0389FF001399FF00D15
:101C60001124E954FE4F6181561306C0608146136A
:101C700003C06281E61203C001968770E9CFFE2C93
:101C8000EE2009F415C18091EC0181608093EC0194
:101C900054C0561306C0491304C0E11002C0F80135
:101CA00099C0C8010E948D0A882361F1EE2051F18C
:101CB0002091EC01822F82958F7090E0029774F052
:101CC0008091E7019091E80198878F831986BB8600
:101CD000AA862C87CE0107960E941F0A86E0F8018B
:101CE000A7EEB1E001900D928A95E1F70E94390DBF
:101CF0000E942B0D0AC0561711F1C8010E948D0ACF
:101D000081112CC0C8010E941F0AFF24F394D0C087
:101D1000282F207F81F77A2DB98AA88A6E2D89898C
:101D20000E94950A87EE91E00E941F0A86E0F60164
:101D300011928A95E9F70E942B0DF12CB9C0491335
:101D4000DCCFE110DACFF8018583C8010E941F0AB9
:101D500086E0F60111928A95E9F7AAC0EE2091F289
:101D60002091EC01822F82958F7090E002970CF405
:101D7000B5CF8091E7019091E8019A8389831B8216
:101D8000BD82AC822E83CE010196A6CFE83CF10540
:101D900008F044C0FE2CEE2009F4B4CF561330C036
:101DA00049132EC02091EC0120FD21C0822F829585
:101DB0008F70482F50E041155105C9F0F801258377
:101DC0004F30510541F08F5F982F9295907F822F71
:101DD0008F70892B8583C8010E941F0A86E0F80155
:101DE000A7EEB1E001900D928A95E1F73CC086E044
:101DF000F801A7EEB1E001900D928A95E1F758C085
:101E0000C8010E948D0A811169CF8091EC01816027
:101E10008093EC01C8010E941F0A4AC07A2DB98A3A
:101E2000A88A6E2D89890E94950A86E0F601119292
:101E30008A95E9F718C0EE2009F464CFC8010E9422
:101E40008D0AF82E882309F45DCF86E0F801A7EE0D
:101E5000B1E001900D928A95E1F787EE91E00E9442
:101E6000BB060E94390D0E942B0D22C04D875E8754
:101E70008D859E850E945F0C292F22952F70223020
:101E800028F49F7039F0811105C00BC0243028F46C
:101E90009F7049F4805E883020F0C8010E941F0ABC
:101EA0009F2CF92C05C0F8019581907F99F7F9CF07
:101EB0008F2D61960FB6F894DEBF0FBECDBFDF91B8
:101EC000CF911F910F91FF90EF90DF90CF90BF9037
:101ED000AF909F9008951F93CF93DF93CDB7DEB758
:101EE0002C970FB6F894DEBF0FBECDBF4F83588737
:101EF00069877A878B879C87CE0107960E94A50DFC
:101F00008823D1F09F8188852A853B85232B31F05A
:101F10008F3F31F481E09F3F19F403C081E001C09D
:101F200080E080FD47C04F81588569857A858B8523
:101F30009C850E94A40A3EC086E0FE013796DE0121
:101F4000119601900D928A95E1F7FF81E8856A85E7
:101F50007B856115710531F0EF3F31F481E0FF3F82
:101F600019F403C081E001C080E080FD23C020910E
:101F7000B60130E0C9010196877099274091B501FB
:101F800050E084179507F1F1F983EA837D836C8330
:101F900096E0929FD001939FB00D1124A954BE4F9B
:101FA000FE01319601900D929A95E1F78093B6016A
:101FB0000E940A0D16E08091B5019091B601891733
:101FC00071F1189FC001112489549E4F0E94A50DE4
:101FD000882329F1E091B5011E9FF0011124E954F5
:101FE000FE4F4081518162817381848195810E947D
:101FF000A40A8091B50190E001968770992780939B
:10200000B501D9CF0E94650A1092B6011092B501B0
:10201000E7EEF1E086E0DF011D928A95E9F72C9664
:102020000FB6F894DEBF0FBECDBFDF91CF911F91E9
:1020300008958091ED018595859585950895809108
:10204000ED01877008959091ED01977081E009F49A
:1020500080E00895CF9390912B0292FB222720F9E4
:102060002817E1F0C82F892FC0FB82F980932B023B
:1020700080912A0290912B020E94421180910A02C3
:1020800080FF0CC01F92CF938FE692E09F938F93B7
:102090000E946A050F900F900F900F90CF910895B6
:1020A00080912B0282FB882780F991E089270C948C
:1020B0002A1081E00C942A1080E00C942A10809160
:1020C000F90108959091F901892B8093F901089500
:1020D00080959091F90189238093F90108951092D8
:1020E000F90108959091F801892B8093F8010895E2
:1020F00080959091F80189238093F80108951092BA
:10210000F80108959091F701892B8093F7010895C4
:1021100080959091F70189238093F701089510929B
:10212000F70108958091EE01089508950C9495109B
:102130000C94961090912B0292FD08C09091EE01A4
:10214000981721F08093EE010C94981008958091D7
:10215000EE01882329F01092EE0180E00C94981093
:102160000895E0910001F09101018091F9018083CF
:10217000E0910001F091010190818091F801892B9B
:102180008083E0910001F091010190818091F7013D
:10219000892B80838091EE01882381F0E0910001FA
:1021A000F09101019081892B8083809100019091B1
:1021B00001010E94281B81110E94A710809100013B
:1021C000909101010C94B31A0C94951090912B02EC
:1021D00092FD10C098E0899F90011124262B209336
:1021E000ED010E94260B8091ED01859585958595E1
:1021F0000C94E4100C94260B1092ED0180E00C94EA
:10220000E4102091ED01809582238093ED01982FB9
:10221000977041F430E0482F082E000C550B24171E
:10222000350721F490912B0292FF07C08595859583
:1022300085950E94470B0C94FC10089580E090E077
:102240000E94D82321E0893E9E4F09F020E0822F92
:10225000089582E090E00C94D02383E090E00C9409
:10226000D023CF9384E090E00E94D023C82F82E255
:1022700090E00E94D0232C2F30E0A901582BCA01F6
:10228000CF910895CF93C92F682F84E090E00E94EA
:10229000DE236C2F82E290E0CF910C94DE23AB0121
:1022A000BC018FE090E00C94F023AB01BC0183E112
:1022B00090E00C94F02360E070E0CB010C94551199
:1022C00060E070E0CB010E944F110C945B1169EE4D
:1022D0007EEF80E090E00E94FC2360E082E090E0EE
:1022E0000E94DE2360E083E090E00E94DE231092F3
:1022F000B1011092B2011092B3011092B40160E0EA
:1023000084E090E00E94DE2360E082E290E00E94A0
:10231000DE2360E085E090E00E94DE2360E086E05E
:1023200090E00E94DE236FEF87E090E00E94DE23C2
:1023300040E050E0BA0188E090E00E94F02360E0C5
:102340008DE090E00E94DE2340E050E0BA0188E199
:1023500090E00E94F02360E087E190E00E94DE239D
:1023600040E050E0BA018CE190E00E94F02360E090
:1023700070E080E290E00E94FC2340E050E0BA016F
:1023800088E190E00E94F0230C9460110C94671196
:10239000682F8EE090E00C94DE230E94091C60936D
:1023A00006027093070280930802909309026093DB
:1023B0000202709303028093040290930502089531
:1023C00085B7806885BF85B7806885BF089581E03F
:1023D00008950C94E71108950C94EB110C94EB11F3
:1023E0000C94EE110C94EB110C94F2110C94EB1173
:1023F0000E94E01185EF9DE10E945B1C0E94F61196
:102400000C94F4110E94EC110C94EB110E94F41B3B
:102410000E9403160C94F011CF93C82F80910A02EA
:1024200082FF1EC080FF04C08BE892E00E94D104AE
:1024300080910A0280FF0CC01F92CF9386E892E041
:102440009F938F930E946A050F900F900F900F90AB
:1024500080910A0280FF04C084E892E00E94D104C7
:102460008C2FCF910C9468069F92AF92BF92CF921F
:10247000DF92EF92FF920F931F93CF93DF93CDB72D
:10248000DEB72A970FB6F894DEBF0FBECDBF0E940D
:10249000141681110E94CD118BEFA82E81E0B82E69
:1024A00000E010E0902E802F0E940515D82EF50137
:1024B000C1905F01C826B1F40F5F1F4F07301105AF
:1024C00089F78FEF89838A831B820E94FD1B8160BD
:1024D000782F9D838C8349815A816B818D810E94E5
:1024E00071062FC080910A0281FD0E940B15E12C1C
:1024F000FF24F3948C2D8F21F1F00E94E9118823A1
:1025000099F0EE829F82DF2081E009F480E08887E5
:102510000E94FD1B8160782F9A8789874E815F8199
:1025200068858A850E947106F801E550FE4F80811A
:10253000F826F08206C0E394FF0CF6E0EF12DACF43
:10254000BBCF0E94A71A9091FA018917B9F00E9497
:10255000A71A8093FA012A960FB6F894DEBF0FBE31
:10256000CDBFDF91CF911F910F91FF90EF90DF9042
:10257000CF90BF90AF909F900C940C122A960FB6FC
:10258000F894DEBF0FBECDBFDF91CF911F910F91A9
:10259000FF90EF90DF90CF90BF90AF909F90089505
:1025A00080E090E0089508952AE2829FC0011124FE
:1025B000FC0126E0729FE00DF11D1124E60FF11DD4
:1025C000EE0FFF1FE450FF4F859194910895880FFF
:1025D000991FFC01E256FD4F859194910895CF9388
:1025E000DF930E940914EC01811520E5920708F0A1
:1025F00041C0811540E4940708F0CBC0803E9105AE
:1026000020F5803C910508F0B8C0883A910570F437
:10261000853A910508F0A8C08130910509F4A1C060
:1026200008F4EBC0049708F0EBC0E7C08F3B9105BE
:1026300008F0E3C0885AC82FD0E0CC0FDD1FC25C81
:10264000DE4F888199819464DCC0811550E2950742
:1026500050F4C11581E0D80708F0D2C0C83ED105BA
:1026600008F4CEC0CAC0811520E3920708F08AC0E2
:102670009F7085C0811545E5940708F046C0811517
:1026800054E5950708F09DC0C11582E5D80718F5F7
:10269000C11521E5D20708F07FC0CE01F4E0969580
:1026A0008795FA95E1F7282F23703C2F337081E04E
:1026B00090E002C0880F991F3A95E2F79C68922B30
:1026C0002C2F2F702695269540E2249F90011124EF
:1026D000822B932B96C09E01237033279C2F9695B7
:1026E0009695C115D34508F05CC041E050E002C0AA
:1026F000440F551F2A95E2F780E2989F900111241C
:10270000CA01822B932B9C687CC0811559E59507E3
:1027100098F4C11588E5D80708F058C0C11526E51A
:10272000D20708F06AC08C2F0E949D148F7190E030
:10273000982F8827906265C081154AE5940708F4B0
:102740004AC090568115904208F057C08D2F8F7166
:102750000E949D149E01332730628F71A901582B6E
:102760004AC081E090E04DC0855AC82FD0E0C459DE
:10277000DE4F888190E0906444C0805C91090E94A3
:10278000E7123FC09927D3FF02C0986C3AC0906C03
:1027900038C09F70906A35C09C2F8827816F906ADF
:1027A00030C041E050E002C0440F551F2A95E2F7C7
:1027B00080E2989F90011124CA01822B932B9A6882
:1027C00020C0982F8827846F906A1BC09C2F882771
:1027D000806F906A16C08F700E949D149E0194E0D5
:1027E000369527959A95E1F72F7030E0322F222702
:1027F0003069A901482BCA0104C080E090E001C003
:10280000CE01DF91CF9108950E94D4120E94EF1261
:1028100008958238910569F1B0F48133910509F486
:102820006DC048F48932910509F463C08A3291057C
:1028300009F469C008958533910509F455C08933B9
:102840009105B9F00895833E910569F138F4803E11
:102850009105B1F0823E910509F10895863E9105FA
:10286000A9F1873E9105B9F1843E910509F064C054
:1028700023C020912A0220FD4FC021FD4DC00895A4
:1028800080912A0280FD44C080912B0280FF44C0C9
:1028900080912A0284FD42C083EE4DC080912A02BD
:1028A00082FF38C0F5CF80912A0282FD33C080912B
:1028B0002B0280FD31C0ECCF80912B0281FF32C012
:1028C00080912A0284FD2AC087EE35C080912A02B9
:1028D00083FF26C0F5CF80912A0283FD21C080911D
:1028E0002B0281FD1FC0ECCF80912A0285FD1CC008
:1028F0001DC080912A0285FD19C016C080912A0250
:1029000086FD16C017C080912A0286FD13C010C034
:1029100089E311C082EE0FC080EE0DC080E00BC0D5
:1029200086EE09C084EE07C089E205C085E303C0D6
:102930008AE201C081E390E0089590912A0292FF1B
:102940000DC0282F2871283019F4877F846006C0B5
:10295000282F2471243011F48B7F886093FF0DC0E1
:10296000282F2871283119F4877E846106C0282F0A
:102970002471243111F48B7E886120912B0220FF79
:102980000DC0382F3871383019F4877F816006C048
:10299000382F3171313011F48E7F886021FF0DC0E6
:1029A000282F2871283119F4877E816106C0282FCD
:1029B0002171213111F48E7E886194FD877E089506
:1029C00008950E941E11811102C00E94C6110E942A
:1029D000291180930A020E94311190932B02809357
:1029E0002A020E94E0140E942D11682F70E080E0FE
:1029F00090E00E94C60A6091AD017091AE01809195
:102A0000AF019091B0010C94FE0AE82FF0E0ED5C6C
:102A1000FD4F80810895CF92DF92EF92FF920F9346
:102A20001F93CF93DF938DEA92E00E94D10483E35A
:102A3000E82E82E0F82EC0E0D0E098EAC92E92E0BD
:102A4000D92E00EA12E0DF93CF93DF92CF920E945B
:102A50006A0585EA92E00E94D104F70181917F0125
:102A60000E944E061F928F931F930F930E946A0538
:102A70008EE992E00E94D10421968DB79EB7089608
:102A80000FB6F8949EBF0FBE8DBFC730D105D9F6E3
:102A9000DF91CF911F910F91FF90EF90DF90CF903A
:102AA000089580EA8A95F1F7089500C008950C947E
:102AB000511508950C9459150C945A150C945915E8
:102AC0000C945E15F894E82FE295EF70F0E031A1D8
:102AD000282F2F7081E090E001C0880F2A95EAF737
:102AE000982F9095932391A392A1892B82A37894F8
:102AF00008950F931F93CF93DF93C5E7D1E089919A
:102B00008F3F11F00E94621581E0CC37D807B9F7EA
:102B1000CFE6D1E005E711E089918F3F11F00E94E7
:102B200062150C171D07C1F7DF91CF911F910F910F
:102B30000895CF92DF92EF92FF920F931F93CF935E
:102B4000DF938C01C62FD0E0CE018B589E4F7C01C5
:102B5000FC0190819F3F09F44DC0D62EF894E92FD7
:102B6000E295EF70F0E081A19F7021E030E001C0BC
:102B7000220F9A95EAF7822B81A382A12095282320
:102B800022A378940E945515EFE6F1E020E030E0B2
:102B9000C12C51E041914F3FB1F0A42FA295AF70ED
:102BA000B0E090968C9190E04F7002C0959587951B
:102BB0004A95E2F780FD07C0852F022E01C0880FDD
:102BC0000A94EAF701C080E0C82A2F5F3F4F263001
:102BD000310501F7F70180818F3F11F00E946215E6
:102BE00061E0C11001C060E08D2D0E945715C00F3B
:102BF000D11FC882DF91CF911F910F91FF90EF906D
:102C0000DF90CF9008950E947915ECE2F2E0A3E303
:102C1000B2E011921D9282E0E333F807D1F787E02A
:102C20000E945F160C94C505FF920F931F93CF93DC
:102C3000DF93CDB7DEB727970FB6F894DEBF0FBE90
:102C4000CDBF8E010F5F1F4F87E0F80111928A956B
:102C5000E9F7F12C6F2DC8010E949915F394F7E064
:102C6000FF12F8CF47E050E0B8018CE292E00E94FA
:102C7000C323FF24F394009709F4F12C892B41F02E
:102C800087E0F801ACE2B2E001900D928A95E1F79D
:102C90002F2D47E063E372E08CE292E00E94601621
:102CA0000E94CB058F2D27960FB6F894DEBF0FBE7E
:102CB000CDBFDF91CF911F910F91FF90089508959F
:102CC000FF920F931F93CF93DF938C01F62ED72F94
:102CD000C42F222349F081E080930D020E94FD1B46
:102CE00090930C0280930B0280910D028823C1F017
:102CF00080910B0290910C020E94151C059780F0A8
:102D0000EF2DFD2FD8014C2F50E0CD01801B910BF2
:102D1000841795071CF48D918193F7CF10920D02C3
:102D2000DF91CF911F910F91FF9008950E94751B25
:102D30000E94581E0E94711E0E94871E0E9402124D
:102D4000FBCFCF93C82F1F928F9382EC92E09F937B
:102D50008F930E946A0581E090E0A0E0B0E0BC01A2
:102D6000CD0104C0660F771F881F991FCA95D2F73F
:102D70000E94C60A0F900F900F900F90CF910C9465
:102D8000650AEF92FF920F931F93CF93DF938B31DE
:102D900009F4EDC008F08EC08B3009F4B1C008F022
:102DA00078C0863009F4AFC020F4853009F4BDC086
:102DB0004EC1873009F4C0C0883009F048C10E9474
:102DC0002D111F928F938FEC96E09F938F930E940B
:102DD0006A050E94291183FB992790F91F929F93FE
:102DE00082FB992790F91F929F9381FB992790F975
:102DF0001F929F93982F91701F929F931F928F9372
:102E000086E896E09F938F930E946A050E94311195
:102E100087FB222720F91F922F9386FB222720F978
:102E20001F922F9385FB222720F91F922F9384FB5B
:102E3000222720F91F922F9383FB222720F91F922C
:102E40002F9382FB222720F91F922F9391FB222799
:102E500020F91F922F93292F21701F922F9381FB0E
:102E6000222720F91F922F93282F21701F922F9332
:102E70009F938F9381EA95E09F938F930E946A05B9
:102E80008DB79EB788960FB6F8949EBF0FBE8DBFC4
:102E900035C0803109F495C020F48E3009F47BC030
:102EA000D6C0863109F4A8C0893109F0D0C082E3C8
:102EB00093E084C08A32E1F060F4873209F4C3C041
:102EC00028F48E3108F4C3C08D51BEC0893269F137
:102ED000BEC0833448F48A3308F0B3C0853309F4A4
:102EE000B2C0883369F0B3C0833409F4ACC0AFC05A
:102EF0008AE797E00E94D1040E94C611C1E0ACC0ED
:102F00008EEF93E05BC080910A02817F8E7F809379
:102F10000A0283EE93E00E94D10486E797E00E94C4
:102F2000D10481E080930E02E9CF8AE597E00E9408
:102F3000D1040E94CE05E2CF80910A02C82FC0952D
:102F4000C170C0FB80F980930A02CC2329F08EE483
:102F500097E00E94D10480C081E497E00E94D104F0
:102F600080910A02897F877F80930A02C7CF909160
:102F70000A0291FBCC27C0F981E0C827892FC0FB4A
:102F800081F980930A02CC2319F084E397E029C0E9
:102F900086E297E013C090910A0292FBCC27C0F919
:102FA00081E0C827892FC0FB82F980930A02CC23D5
:102FB00019F087E197E015C087E097E00E94D104FF
:102FC0009DCF90910A0293FBCC27C0F981E0C827DE
:102FD000892FC0FB83F980930A02CC2351F08BEF39
:102FE00096E00E94D10480910A02816080930A02D7
:102FF00033C08EEE96E0E2CF0E94091C162F072FF9
:10300000F82EE92ED0912902C0910C010E94A71A36
:10301000EF92FF920F931F931F92DF931F92CF9314
:103020001F928F9387EC92E09F938F930E946A0583
:103030008DB79EB70C960FB6F8949EBF0FBE8DBF8E
:103040005DCF895301C080E00E94A11657CF8CEE5E
:1030500096E00E94D104C0E08C2FDF91CF911F91A8
:103060000F91FF90EF90089580E008950C9434182C
:10307000CF93C82F80910E02882319F0813031F050
:1030800038C00E945F108232B1F504C00E945F1008
:10309000823261F48C2F0E943618811104C08C2F6B
:1030A0000E94C11624C081E090E021C08C2F0E94B4
:1030B000341881111BC0C43189F018F4CB3029F0C9
:1030C00010C0C93259F0C83361F483EE93E00E9416
:1030D000D1048EEB92E00E94D10408C010920E023F
:1030E0000CC08CEB92E00E94D10407C081E081709B
:1030F00006C010920E0280E002C080E0F8CFCF91AF
:1031000008950F931F93CF93DF93C42FD22FFC0109
:1031100082818823C9F0409311020E94FD1B909385
:10312000100280930F0280E28C0F883008F057C0A5
:10313000C77081E001C0880FCA95EAF7DF91CF918F
:103140001F910F910C94E70780911102481330C032
:1031500080910F02909110020E94151C883C9105ED
:1031600038F510E21D0FCD17B9F080E28C0F8830D2
:1031700040F4C77081E001C0880FCA95EAF70E9449
:10318000EE07183028F581E09D2F977001C0880F59
:103190009A95EAF70E94E707802F0E94DE07183011
:1031A000F0F4D77081E001C0880FDA95EAF70AC021
:1031B00080E28C0F883098F4C77081E001C0880FDE
:1031C000CA95EAF7DF91CF911F910F910C94EE070A
:1031D000802FDF91CF911F910F910C94DE07DF912B
:1031E000CF911F910F9108950F939C01CB01243F24
:1031F0004CE5340731F188F4293DFCE53F07D9F06F
:103200002A3D4CE5340779F1283D3C45A9F506E215
:1032100021EE41EE68ED7CE52BC0263FFCE53F0743
:10322000E1F0A8F0273F3C4539F507E225EE46EEF0
:1032300067EF7CE51DC007E225EE45EE69ED7CE514
:1032400017C006E221EE40EE64EF7CE511C007E214
:1032500025EE44EE65EF7CE50BC006E221EE42EE82
:1032600066EF7CE505C008E221E045EE6AED7CE50D
:103270000E94811880E008C0FC018281882319F037
:103280001092110201C081E00F910895CF93DF9356
:10329000EC01FB018281882309F41FC1C230FCE5E7
:1032A000DF0708F41BC1C6319CE5D90738F09E0141
:1032B0002B5F3C452930310508F010C10E943111C7
:1032C00090932B0280932A02C031ECE5DE0709F4CB
:1032D000C3C008F041C0C8308CE5D80709F49AC0D3
:1032E000F0F4C430ECE5DE0709F487C068F4C230BE
:1032F0008CE5D80709F477C0C330DC4509F0E3C09A
:1033000080912A02826076C0C630ECE5DE0709F4BF
:103310006EC008F07BC080912A0288606BC0CC3000
:103320008CE5D80709F485C068F4CA30ECE5DE07FF
:1033300009F474C008F079C00E94650A80912A02DD
:10334000806858C0CE308CE5D80709F476C008F004
:103350007FC080912A028BC0CC3FECE5DE0709F4E8
:103360004FC018F5C3318CE5D80709F47DC078F457
:10337000C131ECE5DE0709F473C0C231DC4509F068
:10338000A2C00E94650A80912A028F7733C0C5319E
:103390008CE5D80709F472C008F486C0CB3FDC4541
:1033A00009F091C080912B023EC0C115FDE5DF07F9
:1033B00009F45FC058F4CE3F9CE5D90709F444C036
:1033C00008F43FC080912B0282602DC0C230FDE521
:1033D000DF0709F475C008F45DC0C330DD4509F0AE
:1033E00072C080E06EC080912A02816003C080912B
:1033F0002A02806180932A0266C080912A0211C04D
:1034000080912B02826080932B025DC080912A0202
:103410008062F0CF80912A028064ECCF80912A02F2
:1034200088608460E7CF8160EECF80912A028E7F32
:10343000E1CF80912A028D7FDDCF80912A02877FA4
:10344000D9CF80912B0218C080912B028D7FDBCFCA
:1034500080912A028F7ECECF80912A028F7DCACFA3
:1034600080912A028F7BC6CF80912A02877F8B7F33
:10347000C1CF80912B028D7F8E7FC5CF80912A0294
:1034800082FB222720F991E0922790FB82F990FBA2
:1034900083F9B0CF80912B02982F909591708E7FF9
:1034A000892B90FB81F9AFCF0E94650A80912A0297
:1034B00087FB222720F991E0922790FB87F99ACF8A
:1034C00081E00E94C81180912A0290912B020E94F3
:1034D00042110E94650A80E001C081E0DF91CF9136
:1034E0000895CF93DF9386319C4541F5EB010E940F
:1034F0005F10982F8A81209100013091010188236B
:1035000079F09A7A81E009F480E0809312029111B7
:1035100002C069E201C065E3C9010E946A1B0AC0DA
:1035200080911202811102C069E201C065E3C90104
:103530000E946C1B0E94B11080E001C081E0DF910D
:10354000CF91089590931802809317020895E09107
:103550001702F0911802309721F00190F081E02DD0
:10356000099480E00895EF92FF920F931F93CF93F9
:10357000DF93E0911702F09118023097B1F18C01BE
:103580000280F381E02D099580910A0282FF2DC00F
:1035900080FF04C083E997E00E94D104E80118E0AD
:1035A0008DE8E82E87E0F82E80910A0280FF0BC09C
:1035B00088811F928F93FF92EF920E946A050F906D
:1035C0000F900F900F90115021961111EDCF809117
:1035D0000A0280FF0AC08BE897E0DF91CF911F912C
:1035E0000F91FF90EF900C94D104DF91CF911F9138
:1035F0000F91FF90EF9008952091150230911602DF
:103600002817390771F09093160280931502E09104
:103610001702F0911802309721F00680F781E02D13
:103620000994089520911302309114022817390744
:1036300071F09093140280931302E0911702F091BD
:103640001802309721F00084F185E02D0994089547
:10365000FC01329697E080E0915029F021912223DD
:10366000D9F38F5FF9CF0895662349F0FC013296B4
:1036700008962191621729F0E817F907D1F780E041
:10368000089581E008959C01FC0132969FEF80E04F
:103690004191461789F09F3F19F4411101C0982FBD
:1036A0008F5F8630A9F79F3F39F0F901E90FF11DCF
:1036B00097FDFA956283089508959C012A5F3F4F14
:1036C000FC014281461301C01282019682179307C2
:1036D000B9F708950C94431B0C945D1B029626E0E9
:1036E000FC0111922A95E9F70895089508950C9424
:1036F000761B0C94761BCF930E94791B0E941416A4
:103700000E94771BC0E08C2F0E940515811104C018
:10371000CF5FC730C1F701C081E0CF9108950C940D
:10372000761B0C948F1B80914202843049F10E94D9
:10373000911B80E00E9468061092190220E488E143
:1037400090E00FB6F894A895809360000FBE209388
:10375000600083B7817F846083BF83B7816083BF4C
:103760007894889583B78E7F83BF0FB6F894A89519
:1037700080916000886180936000109260000FBEAD
:1037800008950C94761B0E94650A0E94A71A0E9455
:1037900068060C94C11B1F920F920FB60F92112452
:1037A0008F939F93AF93BF9380911902811113C0A0
:1037B00080913A0290913B02A0913C02B0913D026F
:1037C0004196A11DB11D80933A0290933B02A093B4
:1037D0003C02B0933D02BF91AF919F918F910F90AA
:1037E0000FBE0F901F90189582E084BD93E095BDA9
:1037F0009AEF97BD80936E0008952FB7F89480914B
:103800003A0290913B02A0913C02B0913D022FBF41
:1038100008952FB7F89460913A0270913B0280911D
:103820003C0290913D022FBF08959C014FB7F89440
:1038300080913A0290913B02A0913C02B0913D02EE
:103840004FBF821B930B089578941F920F920FB66F
:103850000F9211248F939F93AF93BF9380913A025D
:1038600090913B02A0913C02B0913D020196A11DB6
:10387000B11D80933A0290933B02A0933C02B09317
:103880003D02BF91AF919F918F910F900FBE0F900E
:103890001F90189587E797E7909301088093000899
:1038A0009AE088E10FB6F894A895809360000FBE67
:1038B00090936000FFCF90938D0180938C010895C9
:1038C00080912802089590914202943031F58093BE
:1038D0001C0270931E0260931D0282E08093E90037
:1038E0008FEF9091E800815095FD06C095ED9A9577
:1038F000F1F700008111F5CF8091E80085FF0DC040
:1039000040E050E063E070E08CE192E00E94141F20
:103910008091E8008E778093E8000895BC0184E0F0
:103920000C94631CBC0183E00C94631CCF93DF9365
:1039300021E02093E9002FEF3091E800215035FD80
:1039400006C035ED3A95F1F700002111F5CF209131
:10395000E80025FF14C0EC0140E050E068E070E0B2
:103960000E94141F8091E8008E778093E80088E021
:10397000FE01A0E2B2E001900D928A95E1F7DF919D
:10398000CF91089508958AEC97E00E94D104809128
:103990004102811109C00E94A5200E94022180914C
:1039A000E20084608093E200089586EC97E00E9434
:1039B000D10410924102089582EC97E00C94D10456
:1039C0008EEB97E00C94D1048AEB97E00C94D10431
:1039D00020911B022F5F822F62E30E94B123992363
:1039E00019F020931B02089510921B0280911F0270
:1039F000882371F180914202843041F58091E90081
:103A00008F702091EC00922F917020FD90E8892B0F
:103A100093E09093E9009091EB0090FF14C0909197
:103A2000EE0097FF10C09091E80095FF03C0109240
:103A3000F100F9CF9091E80090FF05C09091E80067
:103A40009E779093E8008F708093E90010921F0298
:103A5000089542E061EC81E00E941E2042E261ECA8
:103A600082E00E941E2042E261EC83E00C941E2062
:103A700080914402833009F460C030F4813071F0E9
:103A8000823009F499C008958A3009F485C08B30DA
:103A900009F46BC0893009F0A7C020C080914302AF
:103AA000813A09F0A1C08091E800877F8093E80007
:103AB0008091470290914802892B21F468E080E2CE
:103AC00092E003C060E080E090E070E00E945F1F41
:103AD0008091E8008B778093E800089580914302FD
:103AE000813209F081C0809147029091480202978B
:103AF00008F07AC08091E800877F8093E800809189
:103B0000E80082FD05C0809142028111F8CF6CC0AF
:103B10002091F3008091F20090E0922B029729F41B
:103B20008091F1008B7F813021F48091F1008093AE
:103B300028028091E8008B7753C080914302813A3C
:103B400009F052C08091470290914802892B09F0F8
:103B50004BC08091E800877F8093E8008091E80067
:103B600080FFFCCF80910C0136C0809143028132EE
:103B7000D9F58091470290914802892BA9F580914F
:103B8000E800877F8093E8000E94532080914502DF
:103B900080930C010C94650A80914302813221F5D7
:103BA0008091E800877F8093E8000E9453208091F5
:103BB000460280932902089580914302813AA1F43C
:103BC0008091E800877F8093E8008091E80080FF83
:103BD000FCCF809129028093F1008091E8008E77DC
:103BE0008093E8000C94532008959FB7F8941092A6
:103BF0001F029FBF90914202943009F057C09091EC
:103C0000E9009F703091EC00232F217030FD20E8F7
:103C1000922B23E02093E9002091EB0020FF43C08A
:103C20002091EE0027FF3FC020911A02222321F0AD
:103C30002091E80025FF37C010921A0226E030914B
:103C4000E80035FD15C030914202343061F5309105
:103C5000EB0035FD28C0215021F481E080931A0249
:103C600022C0EFE9FFE03197F1F700C00000E7CF95
:103C70008093F1008091E80085FD0AC08091E80002
:103C800080FFFCCF8091E8008E778093E80006C02B
:103C90008FB7F89421E020931F028FBF9F709093FD
:103CA000E90080E008959F709093E9008FEF0895F8
:103CB00084B7877F84BF0FB6F894A8958091600081
:103CC000886180936000109260000FBE90E080E8F1
:103CD0000FB6F89480936100909361000FBE0C942E
:103CE000F8110E94A5200E940221E2EEF0E08081FE
:103CF0008460808378940E9496230E94061282E05A
:103D000091E00E94A21A89EA97E00C94D104809174
:103D100042028530C9F485EA97E00E94D10480917F
:103D20004202853079F40E94931B809140028823DF
:103D3000B1F30E947B1B882391F30E94FE1E0E9418
:103D4000650AEDCF0E94C31B0C9434120C94A81E7C
:103D5000292F332723303105C9F060F42130310594
:103D600081F02230310509F041C08BE590E026EF6B
:103D700037E040C021323105E1F02232310531F126
:103D800035C082E190E021E538E034C099278130E8
:103D9000910549F028F0029749F5EEECF7E005C0EF
:103DA000E2EFF7E002C0E4EEF7E0849190E09F01DB
:103DB00021C063307105D0F4660F771FFB01EB570C
:103DC000FE4F2081318189E090E014C0633071059D
:103DD00068F4FB01EE0FFF1FE158FE4F2081318197
:103DE000FB01E458FE4F808190E004C080E090E049
:103DF00020E030E0FA0131832083089580E189BD1D
:103E000082E189BD09B400FEFDCF8091D8008F7D8D
:103E10008093D8008091E00082608093E0008091E0
:103E2000E00081FDFCCF0895CF92DF92EF92FF92E8
:103E30000F931F93CF93DF93EC018B017A010E94C4
:103E40007220811133C0E114F10439F0F70180814F
:103E50009181081B190BC80FD91FC12CD12C01153A
:103E6000110519F18091E80085FD16C08091E800E8
:103E70008E778093E800E114F10449F0F701808126
:103E80009181C80ED91ED182C08285E00FC00E94E8
:103E90007220882321F30AC089918093F100015098
:103EA0001109FFEFCF1ADF0ADACF80E0DF91CF915F
:103EB0001F910F91FF90EF90DF90CF900895209188
:103EC000490230914A022617370748F061157105FB
:103ED00039F42091E8002E772093E80001C0B90161
:103EE000FC0120E06115710579F18091420288237F
:103EF000F1F18530F1F18091E80083FD3CC08091C3
:103F0000E80082FD2EC08091E80080FFEBCF209179
:103F1000F3008091F20090E0922B6115710551F051
:103F20008830910538F421912093F1006150710996
:103F30000196F3CF21E0089709F020E08091E80096
:103F40008E778093E800CECF2111CFCF0AC0809129
:103F50004202882361F0853061F08091E80083FDA2
:103F60000AC08091E80082FFF2CF80E0089582E0ED
:103F7000089583E0089581E00895209149023091E9
:103F80004A022617370748F06115710539F4209168
:103F9000E8002E772093E80001C0B901FC0120E081
:103FA0006115710591F180914202882309F440C0A6
:103FB000853009F43FC08091E80083FD3DC08091C9
:103FC000E80082FD2FC08091E80080FFE9CF2091BA
:103FD000F3008091F20090E0922B6115710559F089
:103FE0008830910540F424912093F100319661507E
:103FF00071090196F2CF21E0089709F020E0809145
:10400000E8008E778093E800CBCF2111CCCF0AC097
:1040100080914202882361F0853061F08091E80050
:1040200083FD0AC08091E80082FFF2CF80E008950E
:1040300082E0089583E0089581E00895982F9730F5
:1040400068F59093E900981739F07091EC00209191
:10405000ED005091F00003C0242F762F50E021FD99
:1040600002C09F5FECCF3091EB003E7F3093EB00BE
:104070003091ED003D7F3093ED003091EB003160E9
:104080003093EB007093EC002093ED005093F00020
:104090002091EE0027FDE5CF80E008958F7080939A
:1040A000E90081E008958091430287FF11C080916B
:1040B000E80082FD05C0809142028111F8CF11C055
:1040C0008091E8008B770BC080914202882349F0F1
:1040D0008091E80080FFF8CF8091E8008E77809390
:1040E000E80008952091E4003091E50095E64091C4
:1040F000EC00842F817040FF23C08091E80080FD98
:104100001DC080914202882399F0853099F08091FA
:10411000EB0085FD11C04091E4005091E5002417AB
:10412000350729F3915011F09A01E1CF84E0089509
:1041300082E0089583E0089581E0089580E0089585
:104140004091E80042FFDDCF08950E9413210E94B4
:104150001B21E0EEF0E0808181608083E8EDF0E0FB
:1041600080818F77808319BCA7EDB0E08C918E7F22
:104170008C9380818F7E80831092410208950F93EB
:104180001F93CF93DF930E9413210E941B21C8ED40
:10419000D0E088818F778883888180688883888150
:1041A0008F7D888319BC1092420210923E021092B9
:1041B000400210923F0200EE10E0F80180818B7FF8
:1041C000808388818160888342E060E080E00E9493
:1041D0001E20E1EEF0E080818E7F8083E2EEF0E051
:1041E000808181608083808188608083F801808104
:1041F0008E7F8083888180618883DF91CF911F913A
:104200000F910895E8EDF0E080818F7E8083E7EDE7
:10421000F0E080818160808384E082BF81E08093D0
:1042200041020C94BF20E8EDF0E080818E7F808316
:104230001092E20008951092DA001092E1000895C1
:104240001F920F920FB60F9211242F933F934F930B
:104250005F936F937F938F939F93AF93BF93EF93EE
:10426000FF938091E10082FF0BC08091E20082FF0A
:1042700007C08091E1008B7F8093E1000E94E81CE1
:104280008091DA0080FF1FC08091D80080FF1BC0A2
:104290008091DA008E7F8093DA008091D90080FFD0
:1042A0000DC080E189BD82E189BD09B400FEFDCF6A
:1042B00081E0809342020E94C31C05C019BC109289
:1042C00042020E94D51C8091E10080FF19C08091BC
:1042D000E20080FF15C08091E2008E7F8093E200B3
:1042E0008091E20080618093E2008091D80080623A
:1042F0008093D80019BC85E0809342020E94E01CA4
:104300008091E10084FF30C08091E20084FF2CC0E6
:1043100080E189BD82E189BD09B400FEFDCF8091B5
:10432000D8008F7D8093D8008091E1008F7E8093AC
:10433000E1008091E2008F7E8093E2008091E200B4
:1043400081608093E20080913E02882311F084E036
:1043500007C08091E30087FD02C081E001C083E0D7
:10436000809342020E94E41C8091E10083FF29C0F7
:104370008091E20083FF25C08091E100877F8093D8
:10438000E10082E08093420210923E028091E100BF
:104390008E7F8093E1008091E2008E7F8093E20027
:1043A0008091E20080618093E20042E060E080E082
:1043B0000E941E208091F00088608093F0000E948F
:1043C000DC1CFF91EF91BF91AF919F918F917F91F5
:1043D0006F915F914F913F912F910F900FBE0F9072
:1043E0001F9018951F920F920FB60F9211242F93C2
:1043F0003F934F935F936F937F938F939F93AF936D
:10440000BF93CF93DF93EF93FF93C091E900CF70F9
:104410008091EC00D82FD17080FDD0E81092E90097
:104420008091F000877F8093F00078940E9436227C
:104430001092E9008091F00088608093F000CD2B0D
:10444000CF70C093E900FF91EF91DF91CF91BF91C1
:10445000AF919F918F917F916F915F914F913F911C
:104460002F910F900FBE0F901F9018951F93CF9311
:10447000DF93CDB7DEB7AA970FB6F894DEBF0FBEB5
:10448000CDBFE3E4F2E08091F100819322E0EB34D0
:10449000F207C9F70E94381D8091E80083FF2EC102
:1044A0008091430290914402492F50E04A305105D7
:1044B00008F024C1FA01EC58FF4F0C94BD2380385A
:1044C00021F0823809F01AC108C080913F02909112
:1044D0004002992389F082600FC0809147028F705B
:1044E000873008F00BC18093E9008091EB0085FBD9
:1044F000882780F91092E9009091E800977F9093C7
:10450000E8008093F1001092F100D1C0282F2D7F98
:1045100009F0F4C0882319F0823061F0EFC0809177
:104520004502813009F0EAC0933009F080E08093C1
:1045300040022EC08091450281112AC0809147021D
:104540008F702FEF280F263008F0D8C08093E90035
:104550002091EB0020FF1CC0933021F48091EB00F0
:10456000806214C09091EB0090619093EB0021E089
:1045700030E0A90102C0440F551F8A95E2F740932D
:10458000EA001092EA008091EB0088608093EB00D3
:104590001092E9008091E800877F8093E8000E94F4
:1045A0005320ACC08111AAC0109145021F778091A1
:1045B000E3008078812B8093E3008091E800877F7F
:1045C0008093E8000E9453208091E80080FFFCCF98
:1045D0008091E30080688093E300111102C082E0C3
:1045E00001C083E08093420289C08058823008F085
:1045F00085C080914502909146028C3D53E095071D
:1046000079F583E08A838AE289834FB7F894DE01E3
:10461000139620E03EE051E2E32FF0E05093570084
:10462000E49120FF03C0E295EF703F5FEF708E2FA3
:1046300090E0EA3010F0C79601C0C0968D939D932C
:104640002F5F243149F74FBF8091E800877F809327
:10465000E8006AE270E0CE0101960E945F1F16C07A
:104660006091470270914802AE014F5F5F4F0E9418
:10467000A61EBC01892B09F441C09091E800977FE8
:104680009093E80089819A810E94BD1F8091E80083
:104690008B778093E80032C0803881F58091E80004
:1046A000877F8093E80080913E028093F1008091A3
:1046B000E8008E7772CF811121C0809145029091E0
:1046C000460299270297D4F48091E800877F80936F
:1046D000E8008091450280933E020E945320809121
:1046E0003E02811106C08091E30087FD02C081E097
:1046F00001C084E0809342020E94291D8091E8005D
:1047000083FF0AC08091E800877F8093E800809152
:10471000EB0080628093EB00AA960FB6F894DEBFA0
:104720000FBECDBFDF91CF911F910895CF938091A0
:1047300042028823A1F0C091E900CF709091EC0073
:10474000892F817090FD80E8C82B1092E90080913C
:10475000E80083FD0E943622CF70C093E900CF911C
:104760000895991B79E004C0991F961708F0961BCD
:10477000881F7A95C9F780950895EE0FFF1F059061
:10478000F491E02D0994FB01DC0104C08D910190AE
:10479000801921F441505040C8F7881B990B0895A7
:1047A000F999FECF92BD81BDF89A992780B50895F9
:1047B000A8E1B0E042E050E00C940424262FF999DF
:1047C000FECF92BD81BDF89A019700B4021639F070
:1047D0001FBA20BD0FB6F894FA9AF99A0FBE089541
:1047E0000396272F0E94DF230E94DE23252F0E949D
:1047F000DF23242F0C94DF230196272F0E94DF2331
:104800000C94DE23DC01CB01FC01F999FECF06C03C
:10481000F2BDE1BDF89A319600B40D92415050407E
:08482000B8F70895F894FFCFEA
:10482800EF01601C961CC21C921C8E1C01E200E960
:1048380000EA00B500B600B700CD008301CC008ABD
:104848000192019401210223022402250226022753
:10485800022A02B300B4006F007000818283E20074
:10486800E900EA00B500B600B700CD008301CC002E
:104878008A019201940121022302240225022602C0
:1048880027022A02B300B4006F007000818283946B
:104898006697C63435F4F5F6F7313332403222B72D
:0C48A8000885086308080821083A080089
:00000001FF
