:100000000C94D0040C9417050C9417050C94170548
:100010000C9417050C9417050C9417050C941705F0
:100020000C9417050C9417050C9474210C9446221B
:100030000C941F1C0C9417050C9417050C941705B1
:100040000C9417050C9417050C9417050C941705C0
:100050000C9417050C94781C0C9417050C94170538
:100060000C9417050C9417050C9417050C941705A0
:100070000C9417050C9417050C9417050C94170590
:100080000C9417050C9417050C9417050C94170580
:100090000C9417050C9417050C9417050C94170570
:1000A0000C9417050C9417050C9417057C087C0814
:1000B000AE08AE08FB082F0A2F0A2F0A1909AE094D
:1000C000BF09BF091F0A2F0A2F0A280ACB0ACB0A29
:1000D000DD0ADD0AD40ADD0ADD0ADD0ACB0ACB0A15
:1000E000D90ADD0ADD0AD90AB322DA22D223DA22BA
:1000F000D22326234923D223A023AF232B0014008D
:100100001A00080015001700E1000400160007009F
:1001100009000A00E0001D001B0006001900050090
:100120001C0018000C001200130031000B000D0021
:100130000E000F00330034001100100036003700AD
:100140003800280001512C002A00000000000000A7
:10015000E20002510351045105512B00E1001E0041
:100160001F00200021002200E000230024002500C1
:10017000260027002E0000000000000000004600BE
:100180002D002F00300035004C000F00AF00500054
:10019000510052004F0016000100E300290000004A
:1001A00000000000E20001003A003B003C000000BB
:1001B000E10000000000000000000000E00000007E
:1001C000000000000000000000000000000000002F
:1001D000000000000000005C0000000000000000C3
:1001E000000000000000000000000000010000000E
:1001F0000000000000000000E2003D0001003E00A1
:100200003F000000E10000000000000000000000CE
:10021000E0000000000000000000000000000000FE
:1002200000000000000000000000000000000000CE
:1002300000000000000000000000000000000000BE
:10024000000000000000000000000000E20040008C
:100250004100010042000000E10000000000000039
:1002600000000000E00000000000000000000000AE
:10027000000000000000000000000000000000007E
:10028000000000000000000000000000000000006E
:10029000000000000000000000000000000000005E
:1002A000E20043004400450001000000E1000000BE
:1002B0000000000000000000E0000000000000005E
:1002C000000000000000000000000000000000002E
:1002D000000000000000000000000000000000001E
:1002E000000000000000000000000000000000000E
:1002F0000000000044454255473A2064697361623A
:100300006C65642E0A0044454255473A20656E618B
:10031000626C65642E0A004F6E6573686F743A20D4
:100320006163746976653A2025640A000A00253005
:100330003258006B6579626F6172645F7365745FD8
:100340006C65643A20000A0025303862003A2000CB
:1003500025303258000A722F632030313233343561
:1003600036370A003F00433E20004C25640A000A4D
:10037000092D20537461747573202D0A686F73748E
:100380005F6B6579626F6172645F6C656473282965
:100390003A20253032580A6B6579626F6172645F6A
:1003A00070726F746F636F6C3A20253032580A6B2D
:1003B0006579626F6172645F69646C653A202530AB
:1003C00032580A74696D65725F72656164333228F0
:1003D000293A202530386C580A000A092D20566524
:1003E0007273696F6E202D0A5649443A2030784660
:1003F00045454428677469707329205049443A2060
:100400003078354631302872657669756E673339D4
:1004100029205645523A203078303030310A425542
:10042000494C443A2020284F637420313220323026
:100430003231290A4F5054494F4E533A204C5546B9
:10044000412045585452414B455920434F4E534F3C
:100450004C4520434F4D4D414E4420343039360AEF
:100460004743433A20352E342E30204156522D4CEE
:100470004942433A20322E302E30204156525F41BD
:100480005243483A20617672350A000A092D20430A
:100490006F6E736F6C65202D0A4553432F713A09B7
:1004A000717569740A000A092D204D61676963201E
:1004B0002D0A443A094465627567204D657373617E
:1004C000676520546F67676C650A583A094D617417
:1004D000726978204465627567204D6F64652054A9
:1004E0006F67676C65202D2053686F77206B657987
:1004F0007072657373657320696E206D61747269C3
:100500007820677269640A4B3A094B6579626F61BA
:10051000726420446562756720546F67676C65205C
:100520002D2053686F77206B657970726573732027
:100530007265706F72740A4D3A094465627567207E
:100540004D6F75736520546F67676C650A563A097D
:1005500056657273696F6E0A533A09537461747504
:10056000730A433A09416374697661746520436F85
:100570006E736F6C65204D6F64650A46312D463190
:10058000303A0953776974636820746F204C61793D
:10059000657220302D392028463130203D204C30E6
:1005A000290A302D393A0953776974636820746FCA
:1005B000204C6179657220302D390A4752415645E9
:1005C0003A0953776974636820746F204C617965C8
:1005D0007220302028616C7465726E617465290A1E
:1005E000423A094A756D7020746F20426F6F746CC7
:1005F0006F616465720A4553433A094A756D70200C
:10060000746F20426F6F746C6F6164657220286133
:100610006C7465726E617465290A453A0950726995
:100620006E7420454550524F4D2053657474696E69
:1006300067730A4253504143453A09436C656172FE
:1006400020454550524F4D0A006B65796D61705FD2
:10065000636F6E6669672E7261773A202530325873
:100660000A2E737761705F636F6E74726F6C5F6375
:100670006170736C6F636B3A2025750A2E6361702D
:10068000736C6F636B5F746F5F636F6E74726F6CAC
:100690003A2025750A2E737761705F6C63746C5F06
:1006A0006C6775693A2025750A2E737761705F72E1
:1006B00063746C5F726775693A2025750A2E7377CB
:1006C00061705F6C616C745F6C6775693A20257549
:1006D0000A2E737761705F72616C745F72677569FF
:1006E0003A2025750A2E6E6F5F6775693A20257569
:1006F0000A2E737761705F67726176655F657363F9
:100700003A2025750A2E737761705F6261636B739F
:100710006C6173685F6261636B73706163653A20DB
:1007200025750A2E6E6B726F3A2025750A00646576
:100730006275675F636F6E6669672E7261773A20D4
:10074000253032580A2E656E61626C653A20257537
:100750000A2E6D61747269783A2025750A2E6B65D0
:1007600079626F6172643A2025750A2E6D6F757318
:10077000653A2025750A006565636F6E6669673A9C
:100780000A64656661756C745F6C617965723A20A4
:1007900025750A003F000A6D6F7573653A206F6614
:1007A000660A000A6D6F7573653A206F6E0A000A5B
:1007B0006B6579626F6172643A206F66660A000A3F
:1007C0006B6579626F6172643A206F6E0A000A6D20
:1007D00061747269783A206F66660A000A6D617406
:1007E0007269783A206F6E0A000A64656275673A2A
:1007F000206F66660A000A64656275673A206F6E4C
:100800000A000A0A4A756D70696E6720746F20626B
:100810006F6F746C6F616465722E2E2E2000433EE4
:100820002000436C656172696E6720454550524FE8
:100830004D0A000A002530325820006B6579626F3E
:100840006172645F7265706F72743A20005B735DF1
:10085000004B6579626F6172642073746172742EEB
:100860000A005B575D005B535D005B525D005B44BB
:100870005D005B435D001403720065007600690053
:1008800075006E0067003300390000000C0367003C
:100890007400690070007300000004030904090279
:1008A0005B00030100A0FA0904000001030101003C
:1008B0000921110100012240000705810308000AF7
:1008C00009040100010300000009211101000122B7
:1008D00032000705820320000A0904020002030017
:1008E00000000921110100012222000705830320D5
:1008F00000010705030320000112010002000000AF
:1009000008EDFE105F0100010200010631FF0974CD
:10091000A1010975150026FF0095207508810209BF
:1009200076150026FF00952075089102C005010983
:1009300080A101850319012AB700150126B700958A
:100940000175108100C0050C0901A1018504190180
:100950002AA002150126A002950175108100C0058C
:10096000010906A101050719E029E71500250195F0
:100970000875018102950175088101050719002993
:10098000FF150026FF00950675088100050819016E
:100990002905950575019102950175039101C00026
:1009A00011241FBECFEFDAE0DEBFCDBF04B603FED9
:1009B00027C080914B0290914C02A0914D02B091C2
:1009C0004E028730904BA740B04BD1F410924B02AF
:1009D00010924C0210924D0210924E0214BE84B737
:1009E000877F84BF0FB6F894A895809160008861D6
:1009F00080936000109260000FBEE0E0F8E309957C
:100A000011E0A0E0B1E0E0EDF8E402C005900D9245
:100A1000AC38B107D9F722E0ACE8B1E001C01D92D3
:100A2000AB34B207E1F70E94EA160C9466240C94EA
:100A30000000FF93EF93E0918C01F0918D013097CE
:100A400009F00995EF91FF910895FC01859180309F
:100A500011F0EFDFFBCF0895FF27E0E230E247FF20
:100A60000CC0419597FF09C0EDE2609570958095A7
:100A70009095611D711D811D911D27FF02C021955B
:100A800030E350E2AA27660F771F881F991FAA1F1D
:100A9000A41710F0A41B63955A95A9F7AA3008F083
:100AA000A95FA05DAF93F39561157105810591056F
:100AB00041F7ED3211F4EF93F395F21718F43F93E9
:100AC000F395FBCF8F91B5DFFA95E1F70895E991A2
:100AD000F9918591803021F0853219F0AADFF9CFA4
:100AE000089520E0E89455915532C1F3503311F444
:100AF000689455915A3348F4505390F3220F022EC4
:100B0000220F220F200D250FF4CF0EF4219589918D
:100B10009991533619F3533729F1533559F1BC01E3
:100B200088279927E8945C3621F4899199916894F3
:100B30005591543639F446EF7EF077FF0DC08FEFB4
:100B40009FEF0AC055374AE039F0583540E121F0AF
:100B5000523642E009F00895FF93EF937DDFEF9165
:100B6000FF91B7CFFF93EF93FC0181918030B9F3F0
:100B700060DFFBCFFF93EF9368DFF1CFDF93CF937D
:100B8000CDB7DEB72596A3DFCF91DF91089581E041
:100B9000089581E008950C94C90508950C94CD053D
:100BA0001F93CF93DF9300D000D01F92CDB7DEB755
:100BB00049835A836B8330918E0189819A813111E7
:100BC00014C0662359F0222349F00E94710C182F9B
:100BD000682F89819A810E94180C03C00E94440CDE
:100BE000182F69817A81812F04C00E94710C69815C
:100BF0007A810F900F900F900F900F90DF91CF910F
:100C00001F910C942813FC01262F40815181628191
:100C1000738184810C94D00581E00895CF93DF9394
:100C2000EC0160E00E940306BE01DF91CF910C94BD
:100C3000CE050E9435150E94BB060C94B4150C9489
:100C4000B01508950E94B90A0E9421062FEF84E38F
:100C50009CE0215080409040E1F700C000000C94DF
:100C60009E1C0F931F93CF93DF938C0161E00E9432
:100C70000306EC01B8010E94CB05882309F45BC090
:100C8000B801CE010E944819882309F454C0B80164
:100C9000CE010E949A19882309F44DC0B801CE01F3
:100CA0000E94C51A882309F446C0F801828188236E
:100CB000D9F1CF3D8CE5D80779F140F4C115FCE5B9
:100CC000DF0791F0C130DC4591F02EC0CC35EDE569
:100CD000DE0741F1CD35FDE5DF0709F1CB35DD4517
:100CE00019F50E94AD1020C00E94220624C08091F8
:100CF0000A02C82FC095C170C0FB80F980930A0218
:100D0000CC2329F086E093E00E94250514C084EFEF
:100D100092E00E94250510C00E941A120CC00E9489
:100D2000A41002C00E94B010C801DF91CF911F91A2
:100D30000F910C94C705C0E08C2FDF91CF911F91CC
:100D40000F9108958295982F937344E0949F90019A
:100D500011248C7C86958695282B822F8575880F8B
:100D60002A7A2695822B089508950C94B40681E082
:100D700008950C94B7060895CF93C82F0E94B50626
:100D80008C2F0E94B906CF910895CF93DF93CDB7F2
:100D9000DEB72B970FB6F894DEBF0FBECDBF4F83E3
:100DA000588769877A878B8761110E94D3109E01CB
:100DB0002F5F3F4F86E0F90111928A95E9F785E0B0
:100DC000FE013796D90101900D928A95E1F789814C
:100DD0009A814C815D81452B31F09F3F31F491E048
:100DE0008F3F19F403C091E001C090E090FF09C06B
:100DF00049815A816B817C818D819E810E94BF0FC8
:100E000005C0C9010E940C068111F2CF2B960FB6C6
:100E1000F894DEBF0FBECDBFDF91CF910895FC01E6
:100E2000808191810E94B30C0895CF93882309F4A7
:100E3000A1C0C82F8238C1F40E94FB1A81FD9AC05C
:100E400069E380910001909101010E94BE1B0E9404
:100E500005112FEF81EE94E0215080409040E1F7A2
:100E600000C0000069E319C0833801F50E94FB1A35
:100E700080FD80C063E580910001909101010E9496
:100E8000BE1B0E9405112FEF81EE94E0215080409F
:100E90009040E1F700C0000063E58091000190916F
:100EA00001010E94C01BCF910C9405118438C1F43C
:100EB0000E94FB1A82FD5EC067E480910001909160
:100EC00001010E94BE1B0E9405112FEF81EE94E0EC
:100ED000215080409040E1F700C0000067E4DDCF82
:100EE0008CEF8C0F813AF8F48C2F0E948C188111B2
:100EF00041C06C2F80910001909101010E94881BDC
:100F0000882349F06C2F80910001909101010E948B
:100F1000C01B0E9405116C2F80910001909101016E
:100F20000E94BE1BC0CF80E28C0F883048F4C7708F
:100F300081E001C0880FCA95EAF70E94B610B3CFCE
:100F4000EBE5EC0FE33040F4F0E0E55CFE4F808130
:100F500090E0CF910C94501BC85AC73158F4EC2F35
:100F6000F0E0EE0FFF1FE35FFE4F80819181CF9194
:100F70000C94661BCF910895882309F45BC0682FF9
:100F8000823879F40E94FB1A81FF54C069E3809192
:100F90000001909101010E94BE1B0E94051169E3AE
:100FA00010C08338B1F40E94FB1A80FF43C063E590
:100FB00080910001909101010E94BE1B0E940511C9
:100FC00063E580910001909101010E94C01B0C9487
:100FD0000511843879F40E94FB1A82FF2BC067E464
:100FE00080910001909101010E94BE1B0E94051199
:100FF00067E4E7CF8CEF860F813A18F380E2860F23
:10100000883048F4677081E001C0880F6A95EAF77C
:101010000E94BC10DCCF8BE5860F833020F480E08B
:1010200090E00C94501B685A673120F480E090E007
:101030000C94661B08951F93CF93DF93182FEB0139
:101040000E941507209741F08FE99FE00197F1F783
:1010500000C000002197F6CF812FDF91CF911F9123
:101060000C94BC07893319F060E070E002C060E5C1
:1010700070E00C941B08882321F00E94B6100C9499
:1010800005110895882321F00E94BC100C940511CD
:101090000895CF92DF92EF92FF920F931F93CF9319
:1010A000DF937C01062FC72FFC01D2811581129599
:1010B0001F700E947710882399F0DD2389F08C2F10
:1010C000807F803421F080E2800F883048F082E019
:1010D0000E9455110E94771091E0D82ED92601C0A8
:1010E000D12CCC2EC2948FE0C8228C2D90E0FC0134
:1010F000EA5AFF4F0C9411248C2F807FCF708823E5
:1011000011F0C295C07FDD2399F0CC2309F482C190
:1011100080E2800F883010F0011104C08C2F0E94F3
:10112000B61003C08C2F0E94C6100E94051172C118
:10113000802F0E94BC07CC2309F491C180E2800F6C
:10114000883010F0011104C08C2F0E94BC1003C025
:101150008C2F0E94CC100E94051181C18C2F807FA2
:10116000CF70803211F0C295C07F002319F001309A
:10117000C9F022C0DD2371F0112341F0113031F4A8
:101180000E94E6108C2B0E94EE1069C10E94E610AE
:101190008C2B1DC0112319F0113009F460C10E947D
:1011A000FB1025C0DD2321F0163008F058C10EC019
:1011B000153008F054C11BC0DD2361F0112331F05C
:1011C000F701858180FF26C18F7085838C2F0E9457
:1011D0003B0845C1112359F0093309F02CC1FFEF39
:1011E00027EE83E0F15020408040E1F722C18C2FB0
:1011F0000E94420834C18C2F86958695837019F021
:10120000813061F02CC1DD2321F0802F9C2F937061
:1012100002C080E090E00E94501B29C1DD2321F034
:10122000802F9C2F937002C080E090E00E94661B8C
:101230001EC18C2F837009F045C0D11114C1402FFD
:10124000429546954770440F440F602F6F70862F6C
:1012500090E0A0E0B0E0042E04C0880F991FAA1F00
:10126000BB1F0A94D2F704FF10C00FE010E020E08B
:1012700030E004C0000F111F221F331F4A95D2F720
:10128000009510952095309503C000E010E098017E
:10129000C695C695C370BC01CD01602B712B822B06
:1012A000932BC23049F058F4C13019F00E942E0B34
:1012B000DAC00E941C0BD7C00E94400BD4C00E9411
:1012C0001A0BD1C0DD2319F08C2F817001C08695D7
:1012D000882309F4C8C0402F429546954770440FB3
:1012E000440F602F6F70862F90E0A0E0B0E0042ED6
:1012F00004C0880F991FAA1FBB1F0A94D2F704FFCE
:1013000010C00FE010E020E030E004C0000F111F1B
:10131000221F331F4A95D2F70095109520953095DE
:1013200003C000E010E09801C695C695C370BC01EB
:10133000CD01602B712B822B932BC23049F058F4D6
:10134000C13019F00E94F30B8EC00E94E10B8BC0DC
:101350000E94050C88C00E94540B85C0CF70DD230D
:1013600039F08C2F0E947A0B802F0E943B087BC0A3
:10137000802F0E9442088C2F0E949B0B74C0023F5A
:1013800001F128F4003F41F0013FA1F03FC0033FCD
:10139000F9F0043F39F13AC0DD2341F0153008F08F
:1013A0005EC08C2F8F710E94C00B59C0163008F0A0
:1013B00056C0F7CFDD2339F08C2F8F710E947A0B46
:1013C0004EC0DD23C9F38C2F8F710E949B0B47C049
:1013D000DD2329F08C2F8F710E94650B40C00E9485
:1013E000600B3DC0DD2349F0CF718C2F0E947A0B3A
:1013F00063E08C2F0E943A1132C081E00E945511A7
:10140000123068F182E00E94551129C0DD2331F0CD
:10141000112391F2802F0E94150721C0112399F208
:10142000093349F49FEFE7EEF3E09150E040F040DC
:10143000E1F700C00000802F0E94BC0710C04C2FB5
:101440004F70602FC7010E9424130E94E10C0FC04F
:101450004C2F4F70602FC7010E94271308C088EFE0
:101460008C0D843020F40E94FB1A0E94BC06DD2003
:10147000C9F00E94731080FD15C0F70112820E940E
:101480006D100E947A0BC7010E94730A0E946D10B2
:10149000DF91CF911F910F91FF90EF90DF90CF9050
:1014A0000C949B0BDF91CF911F910F91FF90EF90C8
:1014B000DF90CF9008950F931F93CF93DF93EC01AC
:1014C000688179818A810E94BE0C8C010E94170C70
:1014D0000E94080BB801CE010E944908DF91CF910C
:1014E0001F910F910895CF93DF93EC01988189812B
:1014F0002B813C81232B31F08F3F31F481E09F3FE2
:1015000019F403C081E001C080E080FD19C0CE0164
:101510000E94310681110CC00E947710882381F04F
:101520008A81882369F082E0DF91CF910C94551174
:10153000CE010E945B0ACE01DF91CF910C940E0682
:10154000DF91CF91089580E090E00E94501B80E0F1
:1015500090E00E94661B0E94D3100E94E3100C943E
:10156000051180910001909101010E94C21B0C9411
:10157000A30A0E94C3100C94B10AE92FE295EF7000
:101580004E2F50E0FA013297EE30F105B0F4EA59EF
:10159000FF4F0C941124803F91F018F4883E68F4BA
:1015A0000EC0843F51F40BC0883E48F0813F29F4BF
:1015B00006C093FB882780F9089580E0089581E0B4
:1015C0000895FC01808191810E94B30C0E94BD0AA4
:1015D0000895CF93DF9300D000D01F92CDB7DEB730
:1015E0000F900F900F900F900F90DF91CF91089573
:1015F000CF93DF9300D000D000D0CDB7DEB72696D2
:101600000FB6F894DEBF0FBECDBFDF91CF91089526
:10161000089508950C94090B0C940A0B0E940C0B6E
:101620006093B1017093B2018093B3019093B401C0
:101630000C94A30A0C940E0B0F931F930091B1010D
:101640001091B2012091B3013091B401602B712B44
:10165000822B932B1F910F910C940E0B0F931F93C2
:101660000091B1011091B2012091B3013091B40108
:1016700060237123822393231F910F910C940E0BEF
:101680000F931F930091B1011091B2012091B3010A
:101690003091B40160277127822793271F910F9102
:1016A0000C940E0B0C94090B0E94520B6093AD012D
:1016B0007093AE018093AF019093B0010C94A30A94
:1016C00060E070E0CB010C94540B0F931F9341E04A
:1016D00050E060E070E08A019B0104C0000F111F20
:1016E000221F331F8A95D2F7C901B8011F910F91AC
:1016F0000C94540B0F931F9341E050E060E070E0B6
:1017000004C0440F551F661F771F8A95D2F780913A
:10171000AD019091AE01A091AF01B091B0018A01ED
:101720009B01082B192B2A2B3B2BC901B8011F91B8
:101730000F910C94540B0F931F9341E050E060E025
:1017400070E004C0440F551F661F771F8A95D2F7BB
:1017500040955095609570958091AD019091AE0146
:10176000A091AF01B091B0018A019B010823192318
:101770002A233B23C901B8011F910F910C94540BEC
:101780000F931F9341E050E060E070E004C0440F0D
:10179000551F661F771F8A95D2F78091AD019091F2
:1017A000AE01A091AF01B091B0018A019B01082761
:1017B00019272A273B27C901B8011F910F910C94C3
:1017C000540B0F931F930091AD011091AE01209126
:1017D000AF013091B001602B712B822B932B1F91A5
:1017E0000F910C94540B0F931F930091AD01109126
:1017F000AE012091AF013091B001602371238223AB
:1018000093231F910F910C94540B0F931F930091EE
:10181000AD011091AE012091AF013091B001602770
:101820007127822793271F910F910C94540B0895D1
:10183000292F220F920F990F890FE82FE695E69531
:10184000E695877051E001C0550F8A95EAF785E06B
:10185000E89FF0011124E157FE4F20E030E070E0F6
:101860004081CB01022E02C0969587950A94E2F73B
:101870008170819584278523842781932F5F3F4F33
:101880002530310569F70895292F220F920F990FFE
:10189000890F682F669566956695982F977085E0F5
:1018A000689FB001112440E050E080E0FB01E40FAC
:1018B000F51FE157FE4F208130E0092E02C036951A
:1018C00027950A94E2F721703327042E01C0220FD6
:1018D0000A94EAF7822B4F5F5F4F4530510531F78D
:1018E0000895BF92CF92DF92EF92FF920F931F93D2
:1018F000CF93DF938C01C090AD01D090AE01E0900A
:10190000AF01F090B0018091B1019091B201A0912E
:10191000B301B091B401C82AD92AEA2AFB2ACFE13F
:10192000D0E0D701C6010C2E04C0B695A7959795B7
:1019300087950A94D2F780FD04C0219790F7B12CC7
:1019400007C0BC2EB8018C2F0E9458140197A9F330
:101950008B2DDF91CF911F910F91FF90EF90DF9032
:10196000CF90BF900895CF93DF93EC010E94710C4C
:10197000BE010E945814DF91CF9108951F93CF9319
:10198000DF93EB0190918E01992321F0CB010E940E
:10199000B30C13C0882349F0CB010E94710C182F9F
:1019A000682FCE010E94180C04C0CB010E94440C89
:1019B000182FBE01812F0E945814DF91CF911F91E3
:1019C0000895EF92FF920F931F93CF93DF938C01B3
:1019D000892B09F46CC0F12CEE24E394E8012196E4
:1019E000F8018491843740F4843008F051C081308C
:1019F00081F0823019F15BC0853709F444C0A8F149
:101A00009CE7980F903708F052C08F770E94BC0770
:101A100041C00E5F1F4FFE01849190E2980F9830F5
:101A200050F48770FE2D01C0FF0F8A95EAF78F2FC3
:101A30000E94D61014C00E9415072DC00E5F1F4FC4
:101A4000FE01849190E2980F983060F48770FE2D2B
:101A500001C0FF0F8A95EAF78F2F0E94DC100E94C9
:101A6000051119C00E94BC0716C00E5F1F4FFE0172
:101A7000C491CC2381F08FE99FE00197F1F700C07A
:101A80000000C150F6CF0E5F1F4FFE01F49003C05F
:101A90000E9415078E018F2D882309F49FCFEFE94F
:101AA000FFE03197F1F700C000008150F5CFDF91E2
:101AB000CF911F910F91FF90EF9008951F93CF93B7
:101AC000DF93C091B50116E08091B601C81799F077
:101AD000D0E01C9FF0011D9FF00D1124E954FE4F32
:101AE0004081518162817381848195810E94F80ACD
:101AF0002196C770E9CFDF91CF911F910895409152
:101B0000E7015091E8016091E9017091EA0180914B
:101B1000EB019091EC010C94F80A0F931F93CF9373
:101B2000DF938091EC0182958F7009F05DC0809108
:101B3000E901882309F458C08091B5011091B601DC
:101B40006091E7017091E801C091EA01D091EB0149
:101B500091E06F3F09F090E0292F06E0811709F42A
:101B600043C0209721F07F3F21F030E003C031E0F7
:101B700001C0322F90E030FD34C0089FF001099F72
:101B8000F00D1124DF01A954BE4F11963C9111971D
:101B9000371327C03C91361324C012963C911297FC
:101BA00031111FC013964D915C9114974C1B5D0B26
:101BB000483C5105B0F48091EC018F7080618093B6
:101BC000EC01E454FE4F80818F708061808387EE4A
:101BD00091E00E94730ADF91CF911F910F910C94B5
:101BE0005E0D01968770BACFDF91CF911F910F9153
:101BF00008959F92AF92BF92CF92DF92EF92FF92A1
:101C00000F931F93CF93DF93CDB7DEB761970FB6D6
:101C1000F894DEBF0FBECDBF8C0185E0F801DE0178
:101C20001D9601900D928A95E1F7F801E28090915E
:101C3000E7016091E8012091EA013091EB01211563
:101C4000310531F06F3F31F481E09F3F19F403C05B
:101C500081E001C080E0F82FF1709F2E80FD3FC130
:101C6000F80140815181A380B48087EEC82E81E0C5
:101C7000D82EF090E901F501E21BF30BFF2009F4E7
:101C8000D9C08091EC01E83CF10508F095C0282FFF
:101C9000207F09F052C0561313C0491311C0FE2C07
:101CA000E1100EC08F7080618093EC010E947F0D67
:101CB000C6010E94730A8091EC01F80185834CC132
:101CC000AB2831F05F3F31F481E04F3F19F403C09E
:101CD00081E001C080E080FD03C081E08E2502C06C
:101CE00080E090E0F82FF170FF2E80FF1CC0809103
:101CF000B5012091B60136E0821709F40BC190E0DE
:101D0000389FF001399FF00D1124E954FE4F618195
:101D1000561306C06081461303C06281E61203C0F9
:101D200001968770E9CFFE2CEE2009F415C1809151
:101D3000EC0181608093EC0154C0561306C0491336
:101D400004C0E11002C0F80199C0C8010E94E10A74
:101D5000882361F1EE2051F12091EC01822F8295D0
:101D60008F7090E0029774F08091E7019091E80104
:101D700098878F831986BB86AA862C87CE01079603
:101D80000E94730A86E0F801A7EEB1E001900D927F
:101D90008A95E1F70E948D0D0E947F0D0AC05617AB
:101DA00011F1C8010E94E10A81112CC0C8010E94F2
:101DB000730AFF24F394D0C0282F207F81F77A2D57
:101DC000B98AA88A6E2D89890E94E90A87EE91E076
:101DD0000E94730A86E0F60111928A95E9F70E9443
:101DE0007F0DF12CB9C04913DCCFE110DACFF80137
:101DF0008583C8010E94730A86E0F60111928A95D4
:101E0000E9F7AAC0EE2091F22091EC01822F829591
:101E10008F7090E002970CF4B5CF8091E70190911C
:101E2000E8019A8389831B82BD82AC822E83CE0116
:101E30000196A6CFE83CF10508F044C0FE2CEE2048
:101E400009F4B4CF561330C049132EC02091EC01D1
:101E500020FD21C0822F82958F70482F50E04115C0
:101E60005105C9F0F80125834F30510541F08F5FCE
:101E7000982F9295907F822F8F70892B8583C80130
:101E80000E94730A86E0F801A7EEB1E001900D927E
:101E90008A95E1F73CC086E0F801A7EEB1E0019039
:101EA0000D928A95E1F758C0C8010E94E10A81119C
:101EB00069CF8091EC0181608093EC01C8010E94A0
:101EC000730A4AC07A2DB98AA88A6E2D89890E9420
:101ED000E90A86E0F60111928A95E9F718C0EE202A
:101EE00009F464CFC8010E94E10AF82E882309F49E
:101EF0005DCF86E0F801A7EEB1E001900D928A95E2
:101F0000E1F787EE91E00E940F070E948D0D0E947D
:101F10007F0D22C04D875E878D859E850E94B30C04
:101F2000292F22952F70223028F49F7039F08111CB
:101F300005C00BC0243028F49F7049F4805E8830BF
:101F400020F0C8010E94730A9F2CF92C05C0F801EB
:101F50009581907F99F7F9CF8F2D61960FB6F89400
:101F6000DEBF0FBECDBFDF91CF911F910F91FF90CC
:101F7000EF90DF90CF90BF90AF909F9008951F9308
:101F8000CF93DF93CDB7DEB72C970FB6F894DEBFB3
:101F90000FBECDBF4F83588769877A878B879C8711
:101FA000CE0107960E94F90D8823D1F09F81888584
:101FB0002A853B85232B31F08F3F31F481E09F3F11
:101FC00019F403C081E001C080E080FD47C04F816B
:101FD000588569857A858B859C850E94F80A3EC064
:101FE00086E0FE013796DE01119601900D928A95EA
:101FF000E1F7FF81E8856A857B856115710531F020
:10200000EF3F31F481E0FF3F19F403C081E001C0EC
:1020100080E080FD23C02091B60130E0C901019627
:10202000877099274091B50150E084179507F1F129
:10203000F983EA837D836C8396E0929FD001939F1E
:10204000B00D1124A954BE4FFE01319601900D929E
:102050009A95E1F78093B6010E945E0D16E080919B
:10206000B5019091B601891771F1189FC001112433
:1020700089549E4F0E94F90D882329F1E091B50102
:102080001E9FF0011124E954FE4F4081518162816D
:102090007381848195810E94F80A8091B50190E056
:1020A0000196877099278093B501D9CF0E94B90A0C
:1020B0001092B6011092B501E7EEF1E086E0DF0183
:1020C0001D928A95E9F72C960FB6F894DEBF0FBEE5
:1020D000CDBFDF91CF911F9108958091ED0185953E
:1020E0008595859508958091ED018770089590916B
:1020F000ED01977081E009F480E00895CF9390910D
:102100002B0292FB222720F92817E1F0C82F892FF4
:10211000C0FB82F980932B0280912A0290912B02BE
:102120000E94961180910A0280FF0CC01F92CF93EB
:1021300087E193E09F938F930E94BE050F900F90CD
:102140000F900F90CF91089580912B0282FB8827EA
:1021500080F991E089270C947E1081E00C947E1028
:1021600080E00C947E108091F90108959091F9011E
:10217000892B8093F901089580959091F901892325
:102180008093F90108951092F90108959091F80152
:10219000892B8093F801089580959091F801892307
:1021A0008093F80108951092F80108959091F70135
:1021B000892B8093F701089580959091F7018923E9
:1021C0008093F70108951092F70108958091EE0130
:1021D000089508950C94E9100C94EA1090912B0244
:1021E00092FD08C09091EE01981721F08093EE01C6
:1021F0000C94EC1008958091EE01882329F0109240
:10220000EE0180E00C94EC100895E0910001F09153
:1022100001018091F9018083E0910001F0910101B9
:1022200090818091F801892B8083E0910001F091E9
:10223000010190818091F701892B80838091EE01CB
:10224000882381F0E0910001F09101019081892BB8
:10225000808380910001909101010E947C1B81117B
:102260000E94FB1080910001909101010C94071BCA
:102270000C94E91090912B0292FD10C098E0899F78
:1022800090011124262B2093ED010E947A0B80915E
:10229000ED018595859585950C9438110C947A0BF4
:1022A0001092ED0180E00C9438112091ED018095A1
:1022B00082238093ED01982F977041F430E0482FEE
:1022C000082E000C550B2417350721F490912B0292
:1022D00092FF07C08595859585950E949B0B0C9470
:1022E0005011089580E090E00E942C2421E0893E66
:1022F0009E4F09F020E0822F089582E090E00C9438
:10230000242483E090E00C942424CF9384E090E094
:102310000E942424C82F82E290E00E9424242C2FC3
:1023200030E0A901582BCA01CF910895CF93C92F4E
:10233000682F84E090E00E9432246C2F82E290E0CB
:10234000CF910C943224AB01BC018FE090E00C944F
:102350004424AB01BC0183E190E00C94442460E090
:1023600070E0CB010C94A91160E070E0CB010E94F9
:10237000A3110C94AF1169EE7EEF80E090E00E9413
:10238000502460E082E090E00E94322460E083E02C
:1023900090E00E9432241092B1011092B20110928A
:1023A000B3011092B40160E084E090E00E94322416
:1023B00060E082E290E00E94322460E085E090E0FC
:1023C0000E94322460E086E090E00E9432246FEFA9
:1023D00087E090E00E94322440E050E0BA0188E0BB
:1023E00090E00E94442460E08DE090E00E9432245E
:1023F00040E050E0BA0188E190E00E94442460E0AF
:1024000087E190E00E94322440E050E0BA018CE184
:1024100090E00E94442460E070E080E290E00E943E
:10242000502440E050E0BA0188E190E00E9444244A
:102430000C94B4110C94BB11682F8EE090E00C94B6
:1024400032240E945D1C6093060270930702809301
:102450000802909309026093020270930302809332
:10246000040290930502089585B7806885BF85B7FB
:10247000806885BF089581E008950C943B1208950B
:102480000C943F120C943F120C9442120C943F1285
:102490000C9446120C943F120E94341289E49EE17F
:1024A0000E94AF1C0E944A120C9448120E944012D3
:1024B0000C943F120E94481C0E9457160C94441220
:1024C000CF93C82F80910A0282FF1EC080FF04C0F4
:1024D00083E393E00E94250580910A0280FF0CC0EF
:1024E0001F92CF938EE293E09F938F930E94BE053D
:1024F0000F900F900F900F9080910A0280FF04C000
:102500008CE293E00E9425058C2FCF910C94BC06A1
:102510009F92AF92BF92CF92DF92EF92FF920F9372
:102520001F93CF93DF93CDB7DEB72A970FB6F894FA
:10253000DEBF0FBECDBF0E94681681110E9421121E
:102540008BEFA82E81E0B82E00E010E0902E802FB7
:102550000E945915D82EF501C1905F01C826B1F42B
:102560000F5F1F4F0730110589F78FEF89838A832B
:102570001B820E94511C8160782F9D838C8349812E
:102580005A816B818D810E94C5062FC080910A02FD
:1025900081FD0E945F15E12CFF24F3948C2D8F2187
:1025A000F1F00E943D12882399F0EE829F82DF2095
:1025B00081E009F480E088870E94511C8160782FB7
:1025C0009A8789874E815F8168858A850E94C506C2
:1025D000F801E550FE4F8081F826F08206C0E394B2
:1025E000FF0CF6E0EF12DACFBBCF0E94FB1A9091FE
:1025F000FA018917B9F00E94FB1A8093FA012A9612
:102600000FB6F894DEBF0FBECDBFDF91CF911F9103
:102610000F91FF90EF90DF90CF90BF90AF909F9081
:102620000C9460122A960FB6F894DEBF0FBECDBF91
:10263000DF91CF911F910F91FF90EF90DF90CF909E
:10264000BF90AF909F90089580E090E00895089526
:102650002AE2829FC0011124FC0126E0729FE00D56
:10266000F11D1124E60FF11DEE0FFF1FE450FF4F87
:10267000859194910895880F991FFC01EA5BFC4FA6
:10268000859194910895CF93DF930E945D14EC019E
:10269000811520E5920708F041C0811540E49407B8
:1026A00008F0CBC0803E910520F5803C910508F0F4
:1026B000B8C0883A910570F4853A910508F0A8C031
:1026C0008130910509F4A1C008F4EBC0049708F02B
:1026D000EBC0E7C08F3B910508F0E3C0885AC82FD4
:1026E000D0E0CC0FDD1FC25CDE4F888199819464FD
:1026F000DCC0811550E2950750F4C11581E0D80780
:1027000008F0D2C0C83ED10508F4CEC0CAC08115B9
:1027100020E3920708F08AC09F7085C0811545E5C7
:10272000940708F046C0811554E5950708F09DC050
:10273000C11582E5D80718F5C11521E5D20708F0C3
:102740007FC0CE01F4E096958795FA95E1F7282FA2
:1027500023703C2F337081E090E002C0880F991FF6
:102760003A95E2F79C68922B2C2F2F702695269590
:1027700040E2249F90011124822B932B96C09E014E
:10278000237033279C2F96959695C115D34508F055
:102790005CC041E050E002C0440F551F2A95E2F7AB
:1027A00080E2989F90011124CA01822B932B9C6890
:1027B0007CC0811559E5950798F4C11588E5D807BF
:1027C00008F058C0C11526E5D20708F06AC08C2F62
:1027D0000E94F1148F7190E0982F8827906265C055
:1027E00081154AE5940708F44AC090568115904235
:1027F00008F057C08D2F8F710E94F1149E0133276E
:1028000030628F71A901582B4AC081E090E04DC021
:10281000855AC82FD0E0C459DE4F888190E090647B
:1028200044C0805C91090E943B133FC09927D3FFAD
:1028300002C0986C3AC0906C38C09F70906A35C0E6
:102840009C2F8827816F906A30C041E050E002C021
:10285000440F551F2A95E2F780E2989F90011124BA
:10286000CA01822B932B9A6820C0982F8827846FE7
:10287000906A1BC09C2F8827806F906A16C08F704B
:102880000E94F1149E0194E0369527959A95E1F700
:102890002F7030E0322F22273069A901482BCA015E
:1028A00004C080E090E001C0CE01DF91CF91089597
:1028B0000E9428130E94431308958238910569F1FC
:1028C000B0F48133910509F46DC048F48932910563
:1028D00009F463C08A32910509F469C0089585330B
:1028E000910509F455C089339105B9F00895833EE7
:1028F000910569F138F4803E9105B1F0823E910571
:1029000009F10895863E9105A9F1873E9105B9F137
:10291000843E910509F064C023C020912A0220FD65
:102920004FC021FD4DC0089580912A0280FD44C012
:1029300080912B0280FF44C080912A0284FD42C016
:1029400083EE4DC080912A0282FF38C0F5CF80917E
:102950002A0282FD33C080912B0280FD31C0ECCF72
:1029600080912B0281FF32C080912A0284FD2AC00F
:1029700087EE35C080912A0283FF26C0F5CF809173
:102980002A0283FD21C080912B0281FD1FC0ECCF64
:1029900080912A0285FD1CC01DC080912A0285FD00
:1029A00019C016C080912A0286FD16C017C08091FA
:1029B0002A0286FD13C010C089E311C082EE0FC049
:1029C00080EE0DC080E00BC086EE09C084EE07C02B
:1029D00089E205C085E303C08AE201C081E390E09B
:1029E000089590912A0292FF0DC0282F2871283057
:1029F00019F4877F846006C0282F2471243011F4D5
:102A00008B7F886093FF0DC0282F2871283119F41F
:102A1000877E846106C0282F2471243111F48B7EB7
:102A2000886120912B0220FF0DC0382F387138307B
:102A300019F4877F816006C0382F3171313011F46D
:102A40008E7F886021FF0DC0282F2871283119F44E
:102A5000877E816106C0282F2171213111F48E7E7D
:102A6000886194FD877E089508950E9472118111F6
:102A700002C00E941A120E947D1180930A020E94D5
:102A8000851190932B0280932A020E9434150E9494
:102A90008111682F70E080E090E00E941A0B609135
:102AA000AD017091AE018091AF019091B0010C9495
:102AB000520BE82FF0E0ED5CFD4F80810895CF923E
:102AC000DF92EF92FF920F931F93CF93DF9385E5F1
:102AD00093E00E94250583E3E82E82E0F82EC0E013
:102AE000D0E090E5C92E93E0D92E08E413E0DF93FF
:102AF000CF93DF92CF920E94BE058DE493E00E94B7
:102B00002505F70181917F010E94A2061F928F93F4
:102B10001F930F930E94BE0586E493E00E94250553
:102B200021968DB79EB708960FB6F8949EBF0FBE3C
:102B30008DBFC730D105D9F6DF91CF911F910F918D
:102B4000FF90EF90DF90CF90089580EA8A95F1F79B
:102B5000089500C008950C94A51508950C94AD1522
:102B60000C94AE150C94AD150C94B215F894E82F96
:102B7000E295EF70F0E031A1282F2F7081E090E016
:102B800001C0880F2A95EAF7982F9095932391A377
:102B900092A1892B82A3789408950F931F93CF93CA
:102BA000DF93C5E7D1E089918F3F11F00E94B61500
:102BB00081E0CC37D807B9F7CFE6D1E005E711E0DF
:102BC00089918F3F11F00E94B6150C171D07C1F7B0
:102BD000DF91CF911F910F910895CF92DF92EF92E5
:102BE000FF920F931F93CF93DF938C01C62FD0E0FA
:102BF000CE018B589E4F7C01FC0190819F3F09F4D0
:102C00004DC0D62EF894E92FE295EF70F0E081A147
:102C10009F7021E030E001C0220F9A95EAF7822BE5
:102C200081A382A12095282322A378940E94A9152C
:102C3000EFE6F1E020E030E0C12C51E041914F3F60
:102C4000B1F0A42FA295AF70B0E090968C9190E077
:102C50004F7002C0959587954A95E2F780FD07C0B1
:102C6000852F022E01C0880F0A94EAF701C080E088
:102C7000C82A2F5F3F4F2630310501F7F7018081C9
:102C80008F3F11F00E94B61561E0C11001C060E0F5
:102C90008D2D0E94AB15C00FD11FC882DF91CF913F
:102CA0001F910F91FF90EF90DF90CF9008950E94B9
:102CB000CD15ECE2F2E0A3E3B2E011921D9282E0C6
:102CC000E333F807D1F787E00E94B3160C94190696
:102CD000FF920F931F93CF93DF93CDB7DEB7279764
:102CE0000FB6F894DEBF0FBECDBF8E010F5F1F4F32
:102CF00087E0F80111928A95E9F7F12C6F2DC80150
:102D00000E94ED15F394F7E0FF12F8CF47E050E092
:102D1000B8018CE292E00E941724FF24F3940097FC
:102D200009F4F12C892B41F087E0F801ACE2B2E024
:102D300001900D928A95E1F72F2D47E063E372E051
:102D40008CE292E00E94B4160E941F068F2D2796F7
:102D50000FB6F894DEBF0FBECDBFDF91CF911F91AC
:102D60000F91FF9008950895FF920F931F93CF93B3
:102D7000DF938C01F62ED72FC42F222349F081E058
:102D800080930D020E94511C90930C0280930B02C1
:102D900080910D028823C1F080910B0290910C026A
:102DA0000E94691C059780F0EF2DFD2FD8014C2F54
:102DB00050E0CD01801B910B841795071CF48D9179
:102DC0008193F7CF10920D02DF91CF911F910F9158
:102DD000FF9008950E94C91B0E94AC1E0E94C51E50
:102DE0000E94DB1E0E945612FBCFCF93C82F1F926A
:102DF0008F938AE693E09F938F930E94BE0581E0B4
:102E000090E0A0E0B0E0BC01CD0104C0660F771FE8
:102E1000881F991FCA95D2F70E941A0B0F900F9026
:102E20000F900F90CF910C94B90AEF92FF920F93ED
:102E30001F93CF93DF938B3109F4EDC008F08EC060
:102E40008B3009F4B1C008F078C0863009F4AFC007
:102E500020F4853009F4BDC04EC1873009F4C0C0EC
:102E6000883009F048C10E9481111F928F9387E733
:102E700097E09F938F930E94BE050E947D1183FB74
:102E8000992790F91F929F9382FB992790F91F929F
:102E90009F9381FB992790F91F929F93982F917090
:102EA0001F929F931F928F938EE297E09F938F9331
:102EB0000E94BE050E94851187FB222720F91F92E0
:102EC0002F9386FB222720F91F922F9385FB222721
:102ED00020F91F922F9384FB222720F91F922F9312
:102EE00083FB222720F91F922F9382FB222720F9B0
:102EF0001F922F9391FB222720F91F922F93292FA6
:102F000021701F922F9381FB222720F91F922F936C
:102F1000282F21701F922F939F938F9389E496E01F
:102F20009F938F930E94BE058DB79EB788960FB66C
:102F3000F8949EBF0FBE8DBF35C0803109F495C097
:102F400020F48E3009F47BC0D6C0863109F4A8C0C5
:102F5000893109F0D0C08AED93E084C08A32E1F073
:102F600060F4873209F4C3C028F48E3108F4C3C07A
:102F70008D51BEC0893269F1BEC0833448F48A33B2
:102F800008F0B3C0853309F4B2C0883369F0B3C028
:102F9000833409F4ACC0AFC082E298E00E942505FA
:102FA0000E941A12C1E0ACC086EA94E05BC0809136
:102FB0000A02817F8E7F80930A028BE894E00E9450
:102FC00025058EE198E00E94250581E080930E02A0
:102FD000E9CF82E098E00E9425050E942206E2CF18
:102FE00080910A02C82FC095C170C0FB80F9809300
:102FF0000A02CC2329F086EF97E00E94250580C0C5
:1030000089EE97E00E94250580910A02897F877FDB
:1030100080930A02C7CF90910A0291FBCC27C0F996
:1030200081E0C827892FC0FB81F980930A02CC2355
:1030300019F08CED97E029C08EEC97E013C09091C9
:103040000A0292FBCC27C0F981E0C827892FC0FB78
:1030500082F980930A02CC2319F08FEB97E015C018
:103060008FEA97E00E9425059DCF90910A0293FB7D
:10307000CC27C0F981E0C827892FC0FB83F9809352
:103080000A02CC2351F083EA97E00E942505809143
:103090000A02816080930A0233C086E997E0E2CF9A
:1030A0000E945D1C162F072FF82EE92ED0912902C1
:1030B000C0910C010E94FB1AEF92FF920F931F9395
:1030C0001F92DF931F92CF931F928F938FE693E00F
:1030D0009F938F930E94BE058DB79EB70C960FB637
:1030E000F8949EBF0FBE8DBF5DCF895301C080E0B5
:1030F0000E94F51657CF84E997E00E942505C0E0AD
:103100008C2FDF91CF911F910F91FF90EF90089539
:1031100080E008950C948818CF93C82F80910E02F8
:10312000882319F0813031F038C00E94B310823208
:10313000B1F504C00E94B310823261F48C2F0E945A
:103140008A18811104C08C2F0E94151724C081E0B9
:1031500090E021C08C2F0E94881881111BC0C431BF
:1031600089F018F4CB3029F010C0C93259F0C833B7
:1031700061F48BE894E00E94250586E693E00E94C6
:10318000250508C010920E020CC084E693E00E9450
:10319000250507C081E0817006C010920E0280E014
:1031A00002C080E0F8CFCF9108950F931F93CF9383
:1031B000DF93C42FD22FFC0182818823C9F0409372
:1031C00011020E94511C9093100280930F0280E222
:1031D0008C0F883008F057C0C77081E001C0880F9D
:1031E000CA95EAF7DF91CF911F910F910C943B089C
:1031F00080911102481330C080910F02909110020B
:103200000E94691C883C910538F510E21D0FCD170E
:10321000B9F080E28C0F883040F4C77081E001C0C3
:10322000880FCA95EAF70E944208183028F581E015
:103230009D2F977001C0880F9A95EAF70E943B086E
:10324000802F0E9432081830F0F4D77081E001C05E
:10325000880FDA95EAF70AC080E28C0F883098F47C
:10326000C77081E001C0880FCA95EAF7DF91CF915E
:103270001F910F910C944208802FDF91CF911F91E5
:103280000F910C943208DF91CF911F910F91089507
:103290000F939C01CB01243F4CE5340731F188F4B6
:1032A000293DFCE53F07D9F02A3D4CE5340779F18B
:1032B000283D3C45A9F506E221EE41EE68ED7CE5AE
:1032C0002BC0263FFCE53F07E1F0A8F0273F3C4537
:1032D00039F507E225EE46EE67EF7CE51DC007E213
:1032E00025EE45EE69ED7CE517C006E221EE40EEE5
:1032F00064EF7CE511C007E225EE44EE65EF7CE566
:103300000BC006E221EE42EE66EF7CE505C008E266
:1033100021E045EE6AED7CE50E94D51880E008C00A
:10332000FC018281882319F01092110201C081E012
:103330000F910895CF93DF93EC01FB0182818823E5
:1033400009F41FC1C230FCE5DF0708F41BC1C63118
:103350009CE5D90738F09E012B5F3C4529303105AB
:1033600008F010C10E94851190932B0280932A02CD
:10337000C031ECE5DE0709F4C3C008F041C0C83035
:103380008CE5D80709F49AC0F0F4C430ECE5DE0708
:1033900009F487C068F4C2308CE5D80709F477C017
:1033A000C330DC4509F0E3C080912A02826076C018
:1033B000C630ECE5DE0709F46EC008F07BC08091F2
:1033C0002A0288606BC0CC308CE5D80709F485C030
:1033D00068F4CA30ECE5DE0709F474C008F079C07F
:1033E0000E94B90A80912A02806858C0CE308CE5CC
:1033F000D80709F476C008F07FC080912A028BC0FC
:10340000CC3FECE5DE0709F44FC018F5C3318CE57D
:10341000D80709F47DC078F4C131ECE5DE0709F482
:1034200073C0C231DC4509F0A2C00E94B90A809184
:103430002A028F7733C0C5318CE5D80709F472C0F2
:1034400008F486C0CB3FDC4509F091C080912B0287
:103450003EC0C115FDE5DF0709F45FC058F4CE3F5B
:103460009CE5D90709F444C008F43FC080912B02C1
:1034700082602DC0C230FDE5DF0709F475C008F495
:103480005DC0C330DD4509F072C080E06EC0809140
:103490002A02816003C080912A02806180932A02FF
:1034A00066C080912A0211C080912B0282608093B5
:1034B0002B025DC080912A028062F0CF80912A02A7
:1034C0008064ECCF80912A0288608460E7CF8160BD
:1034D000EECF80912A028E7FE1CF80912A028D7FEC
:1034E000DDCF80912A02877FD9CF80912B0218C02F
:1034F00080912B028D7FDBCF80912A028F7ECECFF1
:1035000080912A028F7DCACF80912A028F7BC6CFFD
:1035100080912A02877F8B7FC1CF80912B028D7F84
:103520008E7FC5CF80912A0282FB222720F991E06D
:10353000922790FB82F990FB83F9B0CF80912B0208
:10354000982F909591708E7F892B90FB81F9AFCF4A
:103550000E94B90A80912A0287FB222720F991E074
:10356000922790FB87F99ACF81E00E941C128091EC
:103570002A0290912B020E9496110E94B90A80E0C3
:1035800001C081E0DF91CF910895CF93DF93863121
:103590009C4541F5EB010E94B310982F8A81209140
:1035A000000130910101882379F09A7A81E009F4D1
:1035B00080E080931202911102C069E201C065E3CC
:1035C000C9010E94BE1B0AC080911202811102C073
:1035D00069E201C065E3C9010E94C01B0E94051198
:1035E00080E001C081E0DF91CF91089590931802AF
:1035F000809317020895E0911702F0911802309716
:1036000021F00190F081E02D099480E00895EF927F
:10361000FF920F931F93CF93DF93E0911702F091E6
:1036200018023097B1F18C010280F381E02D0995E9
:1036300080910A0282FF2DC080FF04C08BE398E0D6
:103640000E942505E80118E085E3E82E88E0F82EC1
:1036500080910A0280FF0BC088811F928F93FF9296
:10366000EF920E94BE050F900F900F900F90115097
:1036700021961111EDCF80910A0280FF0AC083E3E9
:1036800098E0DF91CF911F910F91FF90EF900C94F4
:103690002505DF91CF911F910F91FF90EF90089535
:1036A00020911502309116022817390771F0909376
:1036B000160280931502E0911702F09118023097DC
:1036C00021F00680F781E02D0994089520911302DE
:1036D000309114022817390771F0909314028093E7
:1036E0001302E0911702F0911802309721F0008444
:1036F000F185E02D09940895FC01329697E080E071
:10370000915029F021912223D9F38F5FF9CF0895A9
:10371000662349F0FC01329608962191621729F040
:10372000E817F907D1F780E0089581E008959C013A
:10373000FC0132969FEF80E04191461789F09F3F50
:1037400019F4411101C0982F8F5F8630A9F79F3F70
:1037500039F0F901E90FF11D97FDFA95628308959B
:1037600008959C012A5F3F4FFC014281461301C02E
:103770001282019682179307B9F708950C94971B4C
:103780000C94B11B029626E0FC0111922A95E9F7F0
:103790000895089508950C94CA1B0C94CA1BCF93E6
:1037A0000E94CD1B0E9468160E94CB1BC0E08C2F8C
:1037B0000E945915811104C0CF5FC730C1F701C005
:1037C00081E0CF9108950C94CA1B0C94E31B809167
:1037D0004202843049F10E94E51B80E00E94BC0651
:1037E0001092190220E488E190E00FB6F894A895B1
:1037F000809360000FBE2093600083B7817F846058
:1038000083BF83B7816083BF7894889583B78E7FA9
:1038100083BF0FB6F894A89580916000886180936B
:103820006000109260000FBE08950C94CA1B0E94A5
:10383000B90A0E94FB1A0E94BC060C94151C1F9228
:103840000F920FB60F9211248F939F93AF93BF9354
:1038500080911902811113C080913A0290913B022C
:10386000A0913C02B0913D024196A11DB11D8093F3
:103870003A0290933B02A0933C02B0933D02BF9169
:10388000AF919F918F910F900FBE0F901F90189541
:1038900082E084BD93E095BD9AEF97BD80936E0062
:1038A00008952FB7F89480913A0290913B02A0912D
:1038B0003C02B0913D022FBF08952FB7F89460915C
:1038C0003A0270913B0280913C0290913D022FBFE1
:1038D00008959C014FB7F89480913A0290913B0271
:1038E000A0913C02B0913D024FBF821B930B089503
:1038F00078941F920F920FB60F9211248F939F937B
:10390000AF93BF9380913A0290913B02A0913C0209
:10391000B0913D020196A11DB11D80933A02909392
:103920003B02A0933C02B0933D02BF91AF919F91A7
:103930008F910F900FBE0F901F90189587E797E714
:1039400090930108809300089AE088E10FB6F894FC
:10395000A895809360000FBE90936000FFCF909376
:103960008D0180938C010895809128020895909193
:103970004202943031F580931C0270931E026093D2
:103980001D0282E08093E9008FEF9091E800815062
:1039900095FD06C095ED9A95F1F700008111F5CFE0
:1039A0008091E80085FF0DC040E050E063E070E0EA
:1039B0008CE192E00E94681F8091E8008E778093EE
:1039C000E8000895BC0184E00C94B71CBC0183E0BE
:1039D0000C94B71CCF93DF9321E02093E9002FEFE5
:1039E0003091E800215035FD06C035ED3A95F1F7EC
:1039F00000002111F5CF2091E80025FF14C0EC0153
:103A000040E050E068E070E00E94681F8091E800AC
:103A10008E778093E80088E0FE01A0E2B2E001909A
:103A20000D928A95E1F7DF91CF910895089582E78D
:103A300098E00E94250580914102811109C00E94F1
:103A4000F9200E9456218091E20084608093E20078
:103A500008958EE698E00E9425051092410208958F
:103A60008AE698E00C94250586E698E00C942505F6
:103A700082E698E00C94250520911B022F5F822F8F
:103A800062E30E940524992319F020931B020895F4
:103A900010921B0280911F02882371F180914202D3
:103AA000843041F58091E9008F702091EC00922FD5
:103AB000917020FD90E8892B93E09093E90090911C
:103AC000EB0090FF14C09091EE0097FF10C0909112
:103AD000E80095FF03C01092F100F9CF9091E80043
:103AE00090FF05C09091E8009E779093E8008F705A
:103AF0008093E90010921F02089542E061EC81E09A
:103B00000E94722042E261EC82E00E94722042E256
:103B100061EC83E00C94722080914402833009F4BC
:103B200060C030F4813071F0823009F499C008959A
:103B30008A3009F485C08B3009F46BC0893009F0F4
:103B4000A7C020C080914302813A09F0A1C08091B2
:103B5000E800877F8093E8008091470290914802B7
:103B6000892B21F468E080E292E003C060E080E00D
:103B700090E070E00E94B31F8091E8008B77809303
:103B8000E800089580914302813209F081C080915C
:103B9000470290914802029708F07AC08091E800AD
:103BA000877F8093E8008091E80082FD05C08091C6
:103BB00042028111F8CF6CC02091F3008091F20095
:103BC00090E0922B029729F48091F1008B7F813055
:103BD00021F48091F100809328028091E8008B7796
:103BE00053C080914302813A09F052C0809147024C
:103BF00090914802892B09F04BC08091E800877FA3
:103C00008093E8008091E80080FFFCCF80910C0158
:103C100036C0809143028132D9F58091470290915C
:103C20004802892BA9F58091E800877F8093E800FE
:103C30000E94A7208091450280930C010C94B90A40
:103C400080914302813221F58091E800877F809343
:103C5000E8000E94A72080914602809329020895DF
:103C600080914302813AA1F48091E800877F80939C
:103C7000E8008091E80080FFFCCF809129028093CA
:103C8000F1008091E8008E778093E8000C94A720E3
:103C900008959FB7F89410921F029FBF909142021F
:103CA000943009F057C09091E9009F703091EC007A
:103CB000232F217030FD20E8922B23E02093E90090
:103CC0002091EB0020FF43C02091EE0027FF3FC072
:103CD00020911A02222321F02091E80025FF37C00D
:103CE00010921A0226E03091E80035FD15C030919F
:103CF0004202343061F53091EB0035FD28C021508F
:103D000021F481E080931A0222C0EFE9FFE03197AD
:103D1000F1F700C00000E7CF8093F1008091E80048
:103D200085FD0AC08091E80080FFFCCF8091E8000B
:103D30008E778093E80006C08FB7F89421E0209337
:103D40001F028FBF9F709093E90080E008959F70DD
:103D50009093E9008FEF089584B7877F84BF0FB6F3
:103D6000F894A8958091600088618093600010921B
:103D700060000FBE90E080E80FB6F8948093610079
:103D8000909361000FBE0C944C120E94F9200E9487
:103D90005621E2EEF0E080818460808378940E9476
:103DA000EA230E945A1282E091E00E94F61A81E50D
:103DB00098E00C942505809142028530C9F48DE489
:103DC00098E00E94250580914202853079F40E9496
:103DD000E71B809140028823B1F30E94CF1B882308
:103DE00091F30E94521F0E94B90AEDCF0E94171C46
:103DF0000C9488120C94FC1E292F33272330310594
:103E0000C9F060F42130310581F02230310509F02C
:103E100041C08BE590E02EE938E040C02132310509
:103E2000E1F02232310531F135C082E190E029EF35
:103E300038E034C099278130910549F028F0029785
:103E400049F5E6E7F8E005C0EAE9F8E002C0ECE889
:103E5000F8E0849190E09F0121C063307105D0F4B7
:103E6000660F771FFB01EB57FE4F2081318189E000
:103E700090E014C06330710568F4FB01EE0FFF1F82
:103E8000E158FE4F20813181FB01E458FE4F8081D3
:103E900090E004C080E090E020E030E0FA0131835F
:103EA0002083089580E189BD82E189BD09B400FEC7
:103EB000FDCF8091D8008F7D8093D8008091E00065
:103EC00082608093E0008091E00081FDFCCF089546
:103ED000CF92DF92EF92FF920F931F93CF93DF93D6
:103EE000EC018B017A010E94C620811133C0E114DC
:103EF000F10439F0F70180819181081B190BC80F7B
:103F0000D91FC12CD12C0115110519F18091E800A0
:103F100085FD16C08091E8008E778093E800E1145B
:103F2000F10449F0F70180819181C80ED91ED18238
:103F3000C08285E00FC00E94C620882321F30AC0FA
:103F400089918093F10001501109FFEFCF1ADF0A28
:103F5000DACF80E0DF91CF911F910F91FF90EF902A
:103F6000DF90CF9008952091490230914A022617A0
:103F7000370748F06115710539F42091E8002E7774
:103F80002093E80001C0B901FC0120E06115710532
:103F900079F1809142028823F1F18530F1F180912D
:103FA000E80083FD3CC08091E80082FD2EC0809136
:103FB000E80080FFEBCF2091F3008091F20090E0C9
:103FC000922B6115710551F08830910538F42191DB
:103FD0002093F100615071090196F3CF21E0089719
:103FE00009F020E08091E8008E778093E800CECF42
:103FF0002111CFCF0AC080914202882361F0853021
:1040000061F08091E80083FD0AC08091E80082FFA2
:10401000F2CF80E0089582E0089583E0089581E082
:1040200008952091490230914A022617370748F037
:104030006115710539F42091E8002E772093E8008E
:1040400001C0B901FC0120E06115710591F1809179
:104050004202882309F440C0853009F43FC08091B2
:10406000E80083FD3DC08091E80082FD2FC0809173
:10407000E80080FFE9CF2091F3008091F20090E00A
:10408000922B6115710559F08830910540F4249107
:104090002093F1003196615071090196F2CF21E031
:1040A000089709F020E08091E8008E778093E8007F
:1040B000CBCF2111CCCF0AC080914202882361F07E
:1040C000853061F08091E80083FD0AC08091E800AE
:1040D00082FFF2CF80E0089582E0089583E00895A2
:1040E00081E00895982F973068F59093E90098172C
:1040F00039F07091EC002091ED005091F00003C078
:10410000242F762F50E021FD02C09F5FECCF30912D
:10411000EB003E7F3093EB003091ED003D7F30931C
:10412000ED003091EB0031603093EB007093EC00C8
:104130002093ED005093F0002091EE0027FDE5CF95
:1041400080E008958F708093E90081E00895809168
:10415000430287FF11C08091E80082FD05C0809175
:1041600042028111F8CF11C08091E8008B770BC01B
:1041700080914202882349F08091E80080FFF8CFC7
:104180008091E8008E778093E80008952091E40004
:104190003091E50095E64091EC00842F817040FF5E
:1041A00023C08091E80080FD1DC0809142028823D9
:1041B00099F0853099F08091EB0085FD11C0409118
:1041C000E4005091E5002417350729F3915011F0D0
:1041D0009A01E1CF84E0089582E0089583E0089594
:1041E00081E0089580E008954091E80042FFDDCF2E
:1041F00008950E9467210E946F21E0EEF0E0808127
:1042000081608083E8EDF0E080818F77808319BC46
:10421000A7EDB0E08C918E7F8C9380818F7E808320
:104220001092410208950F931F93CF93DF930E9442
:1042300067210E946F21C8EDD0E088818F77888345
:1042400088818068888388818F7D888319BC1092DB
:10425000420210923E021092400210923F0200EE83
:1042600010E0F80180818B7F808388818160888362
:1042700042E060E080E00E947220E1EEF0E08081A8
:104280008E7F8083E2EEF0E0808181608083808198
:1042900088608083F80180818E7F8083888180613F
:1042A0008883DF91CF911F910F910895E8EDF0E0A1
:1042B00080818F7E8083E7EDF0E080818160808364
:1042C00084E082BF81E0809341020C941321E8EDE9
:1042D000F0E080818E7F80831092E200089510923A
:1042E000DA001092E10008951F920F920FB60F921C
:1042F00011242F933F934F935F936F937F938F93EB
:104300009F93AF93BF93EF93FF938091E10082FF60
:104310000BC08091E20082FF07C08091E1008B7F9B
:104320008093E1000E943C1D8091DA0080FF1FC055
:104330008091D80080FF1BC08091DA008E7F80932F
:10434000DA008091D90080FF0DC080E189BD82E153
:1043500089BD09B400FEFDCF81E0809342020E9436
:10436000171D05C019BC109242020E94291D8091A0
:10437000E10080FF19C08091E20080FF15C08091AC
:10438000E2008E7F8093E2008091E2008061809362
:10439000E2008091D80080628093D80019BC85E04B
:1043A000809342020E94341D8091E10084FF30C05E
:1043B0008091E20084FF2CC080E189BD82E189BD4B
:1043C00009B400FEFDCF8091D8008F7D8093D80086
:1043D0008091E1008F7E8093E1008091E2008F7EEA
:1043E0008093E2008091E20081608093E2008091FE
:1043F0003E02882311F084E007C08091E30087FD2E
:1044000002C081E001C083E0809342020E94381D17
:104410008091E10083FF29C08091E20083FF25C0E5
:104420008091E100877F8093E10082E080934202E7
:1044300010923E028091E1008E7F8093E100809196
:10444000E2008E7F8093E2008091E20080618093A1
:10445000E20042E060E080E00E9472208091F00083
:1044600088608093F0000E94301DFF91EF91BF9112
:10447000AF919F918F917F916F915F914F913F91FC
:104480002F910F900FBE0F901F9018951F920F92B3
:104490000FB60F9211242F933F934F935F936F9317
:1044A0007F938F939F93AF93BF93CF93DF93EF93BC
:1044B000FF93C091E900CF708091EC00D82FD170AC
:1044C00080FDD0E81092E9008091F000877F809312
:1044D000F00078940E948A221092E9008091F00006
:1044E00088608093F000CD2BCF70C093E900FF91DE
:1044F000EF91DF91CF91BF91AF919F918F917F917C
:104500006F915F914F913F912F910F900FBE0F9040
:104510001F9018951F93CF93DF93CDB7DEB7AA975F
:104520000FB6F894DEBF0FBECDBFE3E4F2E080919A
:10453000F100819322E0EB34F207C9F70E948C1D51
:104540008091E80083FF2EC1809143029091440244
:10455000492F50E04A30510508F024C1FA01EC58C7
:10456000FF4F0C941124803821F0823809F01AC1D1
:1045700008C080913F0290914002992389F08260A7
:104580000FC0809147028F70873008F00BC1809375
:10459000E9008091EB0085FB882780F91092E90003
:1045A0009091E800977F9093E8008093F10010923B
:1045B000F100D1C0282F2D7F09F0F4C0882319F015
:1045C000823061F0EFC080914502813009F0EAC08D
:1045D000933009F080E0809340022EC08091450224
:1045E00081112AC0809147028F702FEF280F26304B
:1045F00008F0D8C08093E9002091EB0020FF1CC098
:10460000933021F48091EB00806214C09091EB0014
:1046100090619093EB0021E030E0A90102C0440FCB
:10462000551F8A95E2F74093EA001092EA008091C4
:10463000EB0088608093EB001092E9008091E80025
:10464000877F8093E8000E94A720ACC08111AAC098
:10465000109145021F778091E3008078812B809331
:10466000E3008091E800877F8093E8000E94A72004
:104670008091E80080FFFCCF8091E3008068809308
:10468000E300111102C082E001C083E08093420286
:1046900089C08058823008F085C080914502909191
:1046A00046028C3D53E0950779F583E08A838AE2E0
:1046B00089834FB7F894DE01139620E03EE051E283
:1046C000E32FF0E050935700E49120FF03C0E29500
:1046D000EF703F5FEF708E2F90E0EA3010F0C796DA
:1046E00001C0C0968D939D932F5F243149F74FBF32
:1046F0008091E800877F8093E8006AE270E0CE0155
:1047000001960E94B31F16C0609147027091480243
:10471000AE014F5F5F4F0E94FA1EBC01892B09F466
:1047200041C09091E800977F9093E80089819A8139
:104730000E9411208091E8008B778093E80032C0BE
:10474000803881F58091E800877F8093E800809130
:104750003E028093F1008091E8008E7772CF811144
:1047600021C0809145029091460299270297D4F486
:104770008091E800877F8093E800809145028093D4
:104780003E020E94A72080913E02811106C08091C6
:10479000E30087FD02C081E001C084E08093420213
:1047A0000E947D1D8091E80083FF0AC08091E8008F
:1047B000877F8093E8008091EB0080628093EB001C
:1047C000AA960FB6F894DEBF0FBECDBFDF91CF9192
:1047D0001F910895CF93809142028823A1F0C09148
:1047E000E900CF709091EC00892F817090FD80E8F6
:1047F000C82B1092E9008091E80083FD0E948A2274
:10480000CF70C093E900CF910895991B79E004C05F
:10481000991F961708F0961B881F7A95C9F78095FF
:104820000895EE0FFF1F0590F491E02D0994FB0110
:10483000DC0104C08D910190801921F44150504059
:10484000C8F7881B990B0895F999FECF92BD81BDD9
:10485000F89A992780B50895A8E1B0E042E050E0C9
:104860000C945824262FF999FECF92BD81BDF89A59
:10487000019700B4021639F01FBA20BD0FB6F894A4
:10488000FA9AF99A0FBE08950396272F0E943324AF
:104890000E943224252F0E943324242F0C94332489
:1048A0000196272F0E9433240C943224DC01CB0183
:1048B000FC01F999FECF06C0F2BDE1BDF89A319630
:1048C00000B40D9241505040B8F70895F894FFCFCE
:1048D000EF01B41CEA1C161DE61CE21C01E200E913
:1048E00000EA00B500B600B700CD008301CC008A15
:1048F00001920194012102230224022502260227AB
:10490000022A02B300B4006F007000818283E200CB
:10491000E900EA00B500B600B700CD008301CC0085
:104920008A01920194012102230224022502260217
:1049300027022A02B300B4006F00700081828394C2
:104940006697C63435F4F5F6F73133324032225FDC
:0C495000092D090B09B008C908E2080095
:00000001FF
